:100000000C945D000C9485000C9485000C94850084
:100010000C9485000C9485000C9485000C9485004C
:100020000C9485000C9485000C9485000C9485003C
:100030000C9485000C9485000C9485000C9485002C
:100040000C9412030C9485000C9482030C945C03B2
:100050000C9485000C9485000C9485000C9485000C
:100060000C9485000C9485000000000024002700FB
:100070002A0000000000250028002B0004040404CE
:100080000404040402020202020203030303030342
:10009000010204081020408001020408102001021F
:1000A00004081020000000080002010000030407FB
:1000B0000000000000000000310511241FBECFEF3A
:1000C000D8E0DEBFCDBF11E0A0E0B1E0E2E1F0E1B9
:1000D00002C005900D92AA32B107D9F721E0AAE239
:1000E000B1E001C01D92A83DB207E1F710E0CDE5F7
:1000F000D0E004C02197FE010E94EC05CC35D10769
:10010000C9F70E94B4030C9407080C9400002FB7A1
:10011000F8948091330190913401A0913501B09110
:1001200036012FBF80933F0190934001A09341017E
:10013000B0934201E0913701F09138010284F385D8
:10014000E02D87E391E0099597FF26C02FB7F8943B
:100150008091330190913401A0913501B091360125
:100160002FBF40913F01509140016091410170913A
:100170004201841B950BA60BB70B40913B0150919C
:100180003C0160913D0170913E0184179507A607DF
:10019000B70780F28FEF9FEF0895EFEAF0E0249128
:1001A000EBE9F0E09491E7E8F0E0E491EE2309F464
:1001B0003BC0222339F1233091F038F42130A9F0EB
:1001C000223001F524B52F7D12C0273091F0283060
:1001D000A1F02430B9F4209180002F7D03C020913C
:1001E00080002F77209380000DC024B52F7724BD89
:1001F00009C02091B0002F7703C02091B0002F7D5F
:100200002093B000F0E0EE0FFF1FEE58FF4FA591D6
:10021000B4912FB7F894EC91811103C090959E236F
:1002200001C09E2B9C932FBF0895CF92DF92EF9237
:10023000FF920F931F93CF93DF936C017A018B0191
:10024000C0E0D0E0CE15DF0589F0D8016D918D01B9
:10025000D601ED91FC910190F081E02DC601099548
:10026000892B11F47E0102C02196ECCFC701DF91EA
:10027000CF911F910F91FF90EF90DF90CF90089555
:10028000089580E090E00895FC01538D448D252F62
:1002900030E0842F90E0821B930B541710F0CF9620
:1002A000089501970895FC01918D828D981761F052
:1002B000828DDF01A80FB11D5D968C91928D9F5F9D
:1002C0009F73928F90E008958FEF9FEF0895FC0148
:1002D000918D828D981731F0828DE80FF11D858DFB
:1002E00090E008958FEF9FEF0895FC01918D228D8E
:1002F000892F90E0805C9F4F821B91098F73992713
:10030000089587E391E00E94750121E0892B09F4AB
:1003100020E0822F0895FC01848DDF01A80FB11D1C
:10032000A35ABF4F2C91848D90E001968F7399272B
:10033000848FA689B7892C93A089B1898C91806418
:100340008C93938D848D981306C00288F389E02DD9
:1003500080818F7D80830895EF92FF920F931F938A
:10036000CF93DF93EC0181E0888F9B8D8C8D981368
:1003700005C0E889F989808185FD24C0F62E0B8DA2
:1003800010E00F5F1F4F0F731127E02E8C8DE812C6
:100390000CC00FB607FCFACFE889F989808185FF88
:1003A000F5CFCE010E948B01F1CF8B8DFE01E80FBE
:1003B000F11DE35AFF4FF0820B8FEA89FB898081A0
:1003C000806207C0EE89FF896083E889F9898081AE
:1003D0008064808381E090E0DF91CF911F910F9145
:1003E000FF90EF900895CF93DF93EC01888D8823E1
:1003F000C9F0EA89FB89808185FD05C0A889B98992
:100400008C9186FD0FC00FB607FCF5CF808185FF6C
:10041000F2CFA889B9898C9185FFEDCFCE010E94DA
:100420008B01E7CFDF91CF91089580E090E0892B99
:1004300029F00E94810181110C9400000895CF934E
:10044000DF9390E0FC01E057FF4F2491FC01E4585A
:10045000FF4F8491882361F190E0880F991FFC0180
:10046000E859FF4FC591D491FC01EE58FF4FA5917B
:10047000B491611109C09FB7F894888120958223B7
:100480008883EC912E230BC0623061F49FB7F894FF
:100490003881822F809583238883EC912E2B2C9397
:1004A0009FBF06C08FB7F894E8812E2B28838FBF9B
:1004B000DF91CF9108958F929F92AF92BF920F9349
:1004C0001F93CF93DF93CDB7DEB7A1970FB6F89404
:1004D000DEBF0FBECDBF19A2423008F44AE08E0144
:1004E0000F5D1F4F842E912CA12CB12CA5019401DE
:1004F0000E94B405E62FB901CA0101501109EA3082
:1005000014F4E05D01C0E95CD801EC93232B242BAB
:10051000252B61F70115110571F0F80101900020FC
:10052000E9F73197AF01401B510BB80187E391E028
:100530000E94150102C080E090E0A1960FB6F894E9
:10054000DEBF0FBECDBFDF91CF911F910F91BF9046
:10055000AF909F908F900895CF92DF92EF92FF928D
:10056000CF93DF936C01990FEE08FF08F7FE1AC0D6
:10057000E0913701F09138010190F081E02D6DE2BA
:1005800087E391E00995EC0166277727CB016C1989
:100590007D098E099F094AE00E945B027C01EC0EF6
:1005A000FD1E06C04AE0C701B6010E945B027C0145
:1005B00042E050E068E171E087E391E00E941501BC
:1005C0008E0D9F1DDF91CF91FF90EF90DF90CF9028
:1005D00008950E94E9070F931F93CF93DF93EC01D7
:1005E00088819981009729F02A813B812617370756
:1005F00088F48B016F5F7F4F0E941F07009761F0A7
:10060000998388831B830A832C813D81232B11F4DA
:10061000FC01108281E001C080E0DF91CF911F9149
:100620000F9108951F920F920FB60F9211242F93DE
:100630003F938F939F93AF93BF938091330190919A
:100640003401A0913501B09136013091320123E09F
:10065000230F2D3720F40196A11DB11D05C026E8FA
:10066000230F0296A11DB11D209332018093330107
:1006700090933401A0933501B093360180912E01FF
:1006800090912F01A0913001B09131010196A11DEF
:10069000B11D80932E0190932F01A0933001B09350
:1006A0003101BF91AF919F918F913F912F910F9009
:1006B0000FBE0F901F9018951F920F920FB60F92BA
:1006C00011242F933F934F935F936F937F938F9357
:1006D0009F93AF93BF93EF93FF9387E391E00E94C3
:1006E0008B01FF91EF91BF91AF919F918F917F917E
:1006F0006F915F914F913F912F910F900FBE0F908F
:100700001F9018951F920F920FB60F9211242F93DE
:100710008F939F93EF93FF93E0914701F0914801EE
:100720008081E0914D01F0914E0182FD12C09081D7
:10073000809150018F5F8F7320915101821751F08A
:10074000E0915001F0E0E95CFE4F958F80935001FD
:1007500001C08081FF91EF919F918F912F910F9018
:100760000FBE0F901F901895CF93DF93CDB7DEB7D4
:100770002C970FB6F894DEBF0FBECDBF789484B52A
:10078000826084BD84B5816084BD85B5826085BD8D
:1007900085B5816085BD80916E00816080936E001B
:1007A000109281008091810082608093810080910D
:1007B00081008160809381008091800081608093BE
:1007C00080008091B10084608093B1008091B0007E
:1007D00081608093B00080917A00846080937A0079
:1007E00080917A00826080937A0080917A008160A3
:1007F00080937A0080917A00806880937A001092CA
:10080000C100E0914701F091480182E08083E091CE
:100810004301F09144011082E0914501F0914601BD
:100820008FEC808310924F01E0914B01F0914C01CD
:1008300086E08083E0914901F0914A0180818061E6
:100840008083E0914901F0914A0180818860808332
:10085000E0914901F0914A01808180688083E091B4
:100860004901F0914A0180818F7D808360E08EE0B4
:100870000E941F0261E08BE00E941F0280E4D82EDC
:1008800088248A9493E0992EA12CB12C0FEA10E0D1
:10089000D0927C0080917A00806480937A0080916D
:1008A0007A0086FDFCCFA091780080917900B0E0BD
:1008B000B82BB0932D01A0932C012FEF30E00E94B4
:1008C000E505A50194010E945E05790130932B0195
:1008D00020932A0161E08BE029873A874B875C8768
:1008E0000E941F0229853A854B855C8521153105BB
:1008F0004105510511F480E006C02F3F3105410547
:10090000510521F481E00E94CD0043C0F80184919B
:100910008330F9F048F48130B9F08230A1F584B524
:10092000806284BD28BD35C08730E9F0883019F178
:10093000843049F5809180008062809380003093FC
:100940008B0020938A0025C084B5806884BD27BDB4
:1009500020C080918000806880938000309389005F
:100960002093880016C08091B00080688093B0000A
:100970002093B3000EC08091B00080628093B000DD
:100980002093B40006C0F0E8EF16F1040CF0BACFE3
:10099000B2CF87E391E00E947501892B09F45EC014
:1009A0001A8219821C821B821E821D8260E070E006
:1009B000CE0101960E94EB0229813A8181110DC07E
:1009C0002115310519F0C9010E9487061A82198282
:1009D0001E821D821C821B8221C01E821D826AE132
:1009E00071E0C9010E94000819C08F8318868FEF3B
:1009F000E81AF80AB701CE0101960E94EB0288239B
:100A000069F029813A818D819E81BE01695F7F4FA6
:100A1000820F931F0E940008FE82ED820E948700D1
:100A2000ED80FE8097FFE1CFEF28A1F06BE171E050
:100A300089819A810E94F707892B61F480912C01AA
:100A400090912D010E94AC0280912A0190912B017E
:100A50000E94AC0289819A810E9487060E94150239
:100A600017CFE7E3F1E01382128288EE93E0A0E073
:100A7000B0E084839583A683B7838AE091E0918375
:100A8000808385EC90E09587848784EC90E097875D
:100A9000868780EC90E0918B808B81EC90E0938B4B
:100AA000828B82EC90E0958B848B86EC90E0978B28
:100AB000868B118E128E138E148E0895052E97FB41
:100AC0001EF400940E94750557FD07D00E94B405DE
:100AD00007FC03D04EF40C94750550954095309565
:100AE00021953F4F4F4F5F4F08959095809570959A
:100AF00061957F4F8F4F9F4F08952F923F924F9256
:100B00005F926F927F928F929F92AF92BF92CF929D
:100B1000DF92EF92FF920F931F93CF93DF93CDB7A6
:100B2000DEB7CA1BDB0B0FB6F894DEBF0FBECDBF1E
:100B300009942A88398848885F846E847D848C84EF
:100B40009B84AA84B984C884DF80EE80FD800C81F8
:100B50001B81AA81B981CE0FD11D0FB6F894DEBFDB
:100B60000FBECDBFED010895A1E21A2EAA1BBB1B3B
:100B7000FD010DC0AA1FBB1FEE1FFF1FA217B30769
:100B8000E407F50720F0A21BB30BE40BF50B661F7F
:100B9000771F881F991F1A9469F760957095809543
:100BA00090959B01AC01BD01CF010895A29FB001BA
:100BB000B39FC001A39F700D811D1124911DB29F91
:100BC000700D811D1124911D08950E94D605B7FF57
:100BD0000895821B930B0895EE0FFF1F0590F4916B
:100BE000E02D0994CF93DF938230910510F482E0D9
:100BF00090E0E091D601F091D70120E030E0C0E034
:100C0000D0E0309711F14081518148175907C0F069
:100C10004817590761F482819381209719F09B83CB
:100C20008A832BC09093D7018093D60126C02115CB
:100C3000310519F04217530718F49A01BE01DF017C
:100C4000EF010280F381E02DDCCF2115310509F1A0
:100C5000281B390B2430310590F412968D919C910C
:100C600013976115710521F0FB019383828304C002
:100C70009093D7018093D601FD01329644C0FD01C7
:100C8000E20FF31F81939193225031092D933C93EE
:100C90003AC02091D4013091D501232B41F4209109
:100CA0000201309103013093D5012093D4012091AA
:100CB0000001309101012115310541F42DB73EB7F6
:100CC0004091040150910501241B350BE091D401A2
:100CD000F091D501E217F307A0F42E1B3F0B281764
:100CE000390778F0AC014E5F5F4F2417350748F0A5
:100CF0004E0F5F1F5093D5014093D4018193919380
:100D000002C0E0E0F0E0CF01DF91CF9108950F93B2
:100D10001F93CF93DF93009709F48CC0FC013297A7
:100D2000138212820091D6011091D701011511058D
:100D300081F420813181820F931F2091D401309161
:100D4000D5012817390779F5F093D501E093D4013F
:100D500071C0D80140E050E0AE17BF0750F41296C2
:100D60002D913C911397AD012115310509F1D90160
:100D7000F3CF9D01DA013383228360817181860F75
:100D8000971F8217930769F4EC0128813981260F98
:100D9000371F2E5F3F4F318320838A819B8193834E
:100DA0008283452B29F4F093D701E093D60142C00A
:100DB0001396FC93EE931297ED01499159919E0180
:100DC000240F351FE217F30771F480819181840F9E
:100DD000951F029611969C938E9382819381139610
:100DE0009C938E931297E0E0F0E0D80112968D91DB
:100DF0009C911397009719F0F8018C01F6CF8D9113
:100E00009C9198012E5F3F4F820F931F2091D40138
:100E10003091D5012817390769F4309729F41092D9
:100E2000D7011092D60102C0138212821093D5010D
:100E30000093D401DF91CF911F910F910895A0E00D
:100E4000B0E0E5E2F7E00C948105EC01009721F4B5
:100E5000CB010E94F205B8C0FC01E60FF71F9C0110
:100E600022503109E217F30708F4ACC0D9010D9103
:100E70001C91119706171707B0F00530110508F4FB
:100E80009FC0C80104978617970708F499C00250BD
:100E90001109061B170B019311936D937C93CF01DE
:100EA0000E9487068DC05B01A01AB10A4C01800E1A
:100EB000911EA091D601B091D70140E050E0E12C05
:100EC000F12C109709F44AC0A815B905D1F56D9019
:100ED0007C901197630182E0C80ED11CCA14DB0418
:100EE00080F1A3014A195B096A0182E0C80ED11C96
:100EF0001296BC9012971396AC91B5E0CB16D10424
:100F000040F0B282A38351834083D9016D937C93D7
:100F10000AC00E5F1F4FC301800F911FF90191831B
:100F20008083EB2DFA2FE114F10431F0D7011396F1
:100F3000FC93EE93129744C0F093D701E093D6014F
:100F40003FC08D919C9111974817590708F4AC0147
:100F50007D0112960D90BC91A02DB3CF8091D4014C
:100F60009091D50188159905E1F446175707C8F403
:100F70008091000190910101009741F48DB79EB7D7
:100F80004091040150910501841B950BE817F90766
:100F9000C8F4F093D501E093D401F9017183608323
:100FA0000FC0CB010E94F2057C01009759F0A80107
:100FB000BE010E94EE07CE010E948706C70104C051
:100FC000CE0102C080E090E0CDB7DEB7EEE00C9439
:100FD0009D0581E090E0F8940C940708FB01DC018A
:100FE00002C001900D9241505040D8F70895FB0186
:100FF000DC018D91019080190110D9F3990B0895AE
:10100000FB01DC0101900D920020E1F70895F894B6
:02101000FFCF10
:101012000000D801800000000000AC01150144016D
:10102200F3017501530167010D0A006765742062BF
:0A10320072696768746E65737300DD
:107E0000112484B714BE81FFF0D085E080938100F7
:107E100082E08093C00088E18093C10086E0809377
:107E2000C20080E18093C4008EE0C9D0259A86E02C
:107E300020E33CEF91E0309385002093840096BBD3
:107E4000B09BFECF1D9AA8958150A9F7CC24DD24C4
:107E500088248394B5E0AB2EA1E19A2EF3E0BF2EE7
:107E6000A2D0813461F49FD0082FAFD0023811F036
:107E7000013811F484E001C083E08DD089C08234E0
:107E800011F484E103C0853419F485E0A6D080C0E4
:107E9000853579F488D0E82EFF2485D0082F10E0AE
:107EA000102F00270E291F29000F111F8ED06801E7
:107EB0006FC0863521F484E090D080E0DECF843638
:107EC00009F040C070D06FD0082F6DD080E0C81688
:107ED00080E7D80618F4F601B7BEE895C0E0D1E017
:107EE00062D089930C17E1F7F0E0CF16F0E7DF06D8
:107EF00018F0F601B7BEE89568D007B600FCFDCFD4
:107F0000A601A0E0B1E02C9130E011968C91119780
:107F100090E0982F8827822B932B1296FA010C0160
:107F200087BEE89511244E5F5F4FF1E0A038BF0790
:107F300051F7F601A7BEE89507B600FCFDCF97BE46
:107F4000E89526C08437B1F42ED02DD0F82E2BD052
:107F50003CD0F601EF2C8F010F5F1F4F84911BD097
:107F6000EA94F801C1F70894C11CD11CFA94CF0C13
:107F7000D11C0EC0853739F428D08EE10CD085E9AC
:107F80000AD08FE07ACF813511F488E018D01DD067
:107F900080E101D065CF982F8091C00085FFFCCF94
:107FA0009093C60008958091C00087FFFCCF809118
:107FB000C00084FD01C0A8958091C6000895E0E648
:107FC000F0E098E1908380830895EDDF803219F02E
:107FD00088E0F5DFFFCF84E1DECF1F93182FE3DFCA
:107FE0001150E9F7F2DF1F91089580E0E8DFEE27F6
:047FF000FF270994CA
:027FFE00040479
:0400000300007E007B
:00000001FF