:100000000C945D000C9485000C9485000C94850084
:100010000C9485000C9485000C9485000C9485004C
:100020000C9485000C9485000C9485000C94D704E6
:100030000C9485000C9485000C9485000C9485002C
:100040000C948D040C9485000C945B040C94350482
:100050000C9485000C9485000C9485000C9485000C
:100060000C9485000C9485000000000024002700FB
:100070002A0000000000250028002B0004040404CE
:100080000404040402020202020203030303030342
:10009000010204081020408001020408102001021F
:1000A00004081020000000080002010000030407FB
:1000B0000000000000000000980511241FBECFEFD3
:1000C000D8E0DEBFCDBF11E0A0E0B1E0ECE8FEE09B
:1000D00002C005900D92AC31B107D9F721E0ACE137
:1000E000B1E001C01D92AE3EB207E1F710E0CDE5F0
:1000F000D0E004C02197FE010E943907CC35D1071A
:10010000C9F70E9411060C9444070C9400008F92CA
:100110009F92AF92BF92CF92DF92EF92FF92809127
:10012000ED0128E532E06901C81AD10887FDD394B2
:10013000CC0CDD1CCC0CDD1C0D2C000CEE08FF08DB
:100140008091EC0128E830E04901881A910887FD88
:100150009394880C991C880C991C092C000CAA08F3
:10016000BB088091EB018F3FC1F090E0FC01EE0FE6
:10017000FF1F8E0F9F1FFC01ED53FE4F2181328127
:1001800043E0220F331F4A95E1F754E03695279557
:100190005A95E1F72E5F3F4F02C020E030E02F5F1D
:1001A0003F4FC901330FAA0BBB0B9C01AD012819AE
:1001B00039094A095B09A4EBB0E00E94E906A701EE
:1001C0009601281939094A095B090E94CA06C90122
:1001D000FF90EF90DF90CF90BF90AF909F908F9067
:1001E0000895CF92DF92EF92FF92DC01A03282E07D
:1001F000B8070CF03EC0B7FD06C0A53BB1052CF01A
:10020000A4EBB0E002C0A0E0B0E08091EC0128E8EF
:1002100030E06901C81AD10887FDD394CC0CDD1CED
:10022000CC0CDD1C0D2C000CEE08FF088091ED01BC
:1002300028E532E0281B310987FD3395220F331F53
:10024000220F331FA901330F660B770B9A01AB0105
:100250002C193D094E095F090E94F40624EB30E099
:1002600040E050E00E94CA06C20ED31EE41EF51EF6
:10027000D6019091EB019C3098F58091EC0148E813
:1002800050E0481B510987FD5395440F551F440FFB
:10029000551FA417B5078CF08091ED0128E532E0D9
:1002A000281B310987FD3395220F331F220F331F7F
:1002B000AD012A173B070CF4A90142505109440F24
:1002C000551F2FB7F894892F90E0FC01EE0FFF1F08
:1002D0008E0F9F1FFC01ED53FE4F528341832FBFB2
:1002E000FF90EF90DF90CF900895CF92DF92EF9242
:1002F000FF920F931F93CF93DF936C017A018B01D1
:10030000C0E0D0E0CE15DF0589F0D8016D918D01F8
:10031000D601ED91FC910190F081E02DC601099587
:10032000892B11F47E0102C02196ECCFC701DF9129
:10033000CF911F910F91FF90EF90DF90CF90089594
:10034000089580E090E00895FC01538D448D252FA1
:1003500030E0842F90E0821B930B541710F0CF965F
:10036000089501970895FC01918D828D981761F091
:10037000828DDF01A80FB11D5D968C91928D9F5FDC
:100380009F73928F90E008958FEF9FEF0895FC0187
:10039000918D828D981731F0828DE80FF11D858D3A
:1003A00090E008958FEF9FEF0895FC01918D228DCD
:1003B000892F90E0805C9F4F821B91098F73992752
:1003C000089586E291E00E94D50121E0892B09F48D
:1003D00020E0822F0895FC01848DDF01A80FB11D5C
:1003E000A35ABF4F2C91848D90E001968F7399276B
:1003F000848FA689B7892C93A089B1898C91806458
:100400008C93938D848D981306C00288F389E02D18
:1004100080818F7D80830895EF92FF920F931F93C9
:10042000CF93DF93EC0181E0888F9B8D8C8D9813A7
:1004300005C0E889F989808185FD24C0F62E0B8DE1
:1004400010E00F5F1F4F0F731127E02E8C8DE81205
:100450000CC00FB607FCFACFE889F989808185FFC7
:10046000F5CFCE010E94EB01F1CF8B8DFE01E80F9D
:10047000F11DE35AFF4FF0820B8FEA89FB898081DF
:10048000806207C0EE89FF896083E889F9898081ED
:100490008064808381E090E0DF91CF911F910F9184
:1004A000FF90EF900895CF93DF93EC01888D882320
:1004B000C9F0EA89FB89808185FD05C0A889B989D1
:1004C0008C9186FD0FC00FB607FCF5CF808185FFAC
:1004D000F2CFA889B9898C9185FFEDCFCE010E941A
:1004E000EB01E7CFDF91CF91089580E090E0892B79
:1004F00029F00E94E10181110C940000089590E020
:10050000FC01EC55FF4F3491FC01E057FF4F249163
:10051000FC01E458FF4FE491EE2309F43BC0332380
:1005200039F1333091F038F43130A9F0323001F53F
:1005300084B58F7D12C0373091F03830A1F034305F
:10054000B9F4809180008F7D03C0809180008F7707
:10055000809380000DC084B58F7784BD09C08091E1
:10056000B0008F7703C08091B0008F7D8093B00082
:10057000F0E0EE0FFF1FEE58FF4FA591B4918FB73B
:10058000F894EC91611103C020952E2301C02E2B0D
:100590002C938FBF08953FB7F894809122019091DA
:1005A0002301A0912401B091250126B5A89B05C087
:1005B0002F3F19F00196A11DB11D3FBFBA2FA92FE2
:1005C000982F8827820F911DA11DB11DBC01CD015F
:1005D00042E0660F771F881F991F4A95D1F708954B
:1005E0008F929F92AF92BF92CF92DF92EF92FF9243
:1005F0000E94CB024B015C018FE0C82ED12CE12C74
:10060000F12C0E94CB02DC01CB0188199909AA09BF
:10061000BB09883E9340A105B10558F021E0C21AFC
:10062000D108E108F10888EE880E83E0981EA11C2D
:10063000B11CC114D104E104F10419F7FF90EF904B
:10064000DF90CF90BF90AF909F908F900895CF9301
:10065000DF93DC018C918C3008F06DC09B01332757
:10066000F901E057FF4F8491F901E458FF4F2491BD
:10067000222399F030E0220F331FF901E859FF4F90
:10068000C591D491F901EE58FF4F259134919FB750
:10069000F894E881E82BE8839FBF8C91E82FF0E085
:1006A0009F01220F331FE20FF31FED53FE4F6F73B5
:1006B0009081907C692B608311961C921197129601
:1006C0001C9212976CE00E942D079CE0899FB0015C
:1006D000112440E050E09A01260F371FF901EE0F78
:1006E000FF1F2E0F3F1FF901ED53FE4F908196FD26
:1006F00016C04F5F5F4F4C30510569F781110FC035
:100700001092800082E08093810010928500109208
:100710008400B19A80916F00826080936F00EC91A9
:10072000F0E0CF01880F991FE80FF91FED53FE4F3E
:100730008081806480838C91DF91CF9108950097B0
:1007400069F0FC0101900020E9F73197AF01481BE7
:10075000590BBC0186E291E00C94750180E090E0B9
:1007600008958F929F92AF92BF92CF92DF92EF92B5
:10077000FF920F931F93CF93DF93CDB7DEB7A1976F
:100780000FB6F894DEBF0FBECDBF6C01990FEE0817
:10079000FF08F7FE31C0E0912601F091270101909A
:1007A000F081E02D6DE286E291E009958C0122272F
:1007B0003327A9012C193D094E095F0919A2CE0161
:1007C00081967C019AE0892E912CA12CB12CCA0132
:1007D000B901A50194010E94FC06605DF7016293D6
:1007E0007F01211531054105510589F7CF010E948F
:1007F0009F03080F191F1EC0A701960119A28E01A1
:100800000F5D1F4F8AE0C82ED12CE12CF12CCA01BC
:10081000B901A70196010E94FC06605DF801629390
:100820008F01211531054105510589F7CF010E943E
:100830009F038C0184E191E00E949F03800F911F30
:10084000A1960FB6F894DEBF0FBECDBFDF91CF915A
:100850001F910F91FF90EF90DF90CF90BF90AF90DE
:100860009F908F9008950E943F071F920F920FB69E
:100870000F9211242F933F934F935F936F937F9326
:100880008F939F93AF93BF93EF93FF9386E291E093
:100890000E94EB01FF91EF91BF91AF919F918F91DA
:1008A0007F916F915F914F913F912F910F900FBE6C
:1008B0000F901F9018951F920F920FB60F92112450
:1008C0002F938F939F93EF93FF93E0913601F091D5
:1008D00037018081E0913C01F0913D0182FD12C021
:1008E000908180913F018F5F8F732091400182172B
:1008F00051F0E0913F01F0E0EA5DFE4F958F80936B
:100900003F0101C08081FF91EF919F918F912F91C5
:100910000F900FBE0F901F9018951F920F920FB659
:100920000F9211242F933F938F939F93AF93BF9375
:1009300080911E0190911F01A0912001B091210191
:1009400030911D0123E0230F2D3720F40196A11DC6
:10095000B11D05C026E8230F0296A11DB11D2093ED
:100960001D0180931E0190931F01A0932001B0935D
:1009700021018091220190912301A0912401B09145
:1009800025010196A11DB11D8093220190932301A1
:10099000A0932401B0932501BF91AF919F918F91B6
:1009A0003F912F910F900FBE0F901F9018951F929F
:1009B0000F920FB60F9211242F933F934F935F9393
:1009C0006F937F938F939F93AF93BF93EF93FF9317
:1009D00080911C0187FF05C0109285001092840051
:1009E0001BC020911C01022E000C330B8091E701EB
:1009F00090E02817390784F480911C01082E000C20
:100A0000990BFC01EE0FFF1F8E0F9F1FFC01ED5392
:100A1000FE4F808186FD15C080911C018F5F809301
:100A20001C0120911C01022E000C330B8091E70168
:100A300090E028173907C4F480911C018C3064F1D0
:100A400013C080911C01082E000C990BFC01EE0FC5
:100A5000FF1F8E0F9F1FFC01ED53FE4F808160E052
:100A60008F730E947F02D8CF80918400909185007F
:100A7000049680349C4918F480E49CE905C0809178
:100A8000840090918500049690938900809388005B
:100A90008FEF80931C013BC0209184003091850032
:100AA00080911C01082E000C990BFC01EE0FFF1F1A
:100AB0008E0F9F1FFC01ED53FE4F81819281820FAB
:100AC000931F909389008093880080911C01082EC9
:100AD000000C990BFC01EE0FFF1F8E0F9F1FFC01F6
:100AE000ED53FE4F808186FF12C080911C01082EBD
:100AF000000C990BFC01EE0FFF1F8E0F9F1FFC01D6
:100B0000ED53FE4F808161E08F730E947F02FF9161
:100B1000EF91BF91AF919F918F917F916F915F9175
:100B20004F913F912F910F900FBE0F901F901895EE
:100B3000109229011092280188EE93E0A0E0B0E025
:100B400080932A0190932B01A0932C01B0932D0147
:100B500086E091E0909327018093260185EC90E058
:100B6000909333018093320184EC90E090933501AF
:100B70008093340180EC90E09093370180933601AC
:100B800081EC90E0909339018093380182EC90E001
:100B900090933B0180933A0186EC90E090933D0165
:100BA00080933C0110923F0110924001109241014C
:100BB000109242018091E7018C30A0F491E0980FEF
:100BC0009093E7018093EB0190E0FC01EE0FFF1F93
:100BD0008E0F9F1FFC01ED53FE4F88EB9BE092832D
:100BE000818303C08FEF8093EB018091E7018C300C
:100BF000A0F491E0980F9093E7018093E80190E0D2
:100C0000FC01EE0FFF1F8E0F9F1FFC01ED53FE4FE7
:100C100088EB9BE09283818308958FEF8093E801B6
:100C20000895789484B5826084BD84B5816084BD64
:100C300085B5826085BD85B5816085BD80916E007A
:100C4000816080936E0010928100809181008260AB
:100C500080938100809181008160809381008091E8
:100C600080008160809380008091B10084608093D7
:100C7000B1008091B00081608093B00080917A00D3
:100C8000846080937A0080917A00826080937A00F9
:100C900080917A00816080937A0080917A008068E8
:100CA00080937A001092C100E0913601F0913701F3
:100CB00082E08083E0913201F09133011082E09173
:100CC0003401F09135018FEC808310923E01E09168
:100CD0003A01F0913B0186E08083E0913801F09188
:100CE0003901808180618083E0913801F091390180
:100CF000808188608083E0913801F09139018081A2
:100D000080688083E0913801F091390180818F7D86
:100D1000808365E070E08BEE91E00E94270367E03E
:100D200070E088EE91E00E942703C0910001D0910D
:100D30000101C436D10594F4CE010E94F1000E9455
:100D4000F0020E94870090930101809300010E94AD
:100D5000B1032196C536D10579F719C0CE010E949D
:100D6000F1000E94F0020E9487009093010180939D
:100D700000010E94B1032197C336D10579F787E1BD
:100D800091E00E949F0384E191E00E949F030E94F2
:100D90007502CBCF052E97FB1EF400940E94E1064E
:100DA00057FD07D00E94FC0607FC03D04EF40C94BC
:100DB000E10650954095309521953F4F4F4F5F4F3D
:100DC000089590958095709561957F4F8F4F9F4FB7
:100DD00008950E941E07A59F900DB49F900DA49F9B
:100DE000800D911D11240895B7FF0C94E9060E940F
:100DF000E906821B930B0895A1E21A2EAA1BBB1BC6
:100E0000FD010DC0AA1FBB1FEE1FFF1FA217B307D6
:100E1000E407F50720F0A21BB30BE40BF50B661FEC
:100E2000771F881F991F1A9469F7609570958095B0
:100E300090959B01AC01BD01CF010895A29FB00127
:100E4000B39FC001A39F700D811D1124911DB29FFE
:100E5000700D811D1124911D0895991B79E004C026
:100E6000991F961708F0961B881F7A95C9F78095E9
:100E70000895EE0FFF1F0590F491E02D099481E095
:0C0E800090E0F8940C944407F894FFCF25
:100E8C009600000000000C027501A4015302D5016C
:0C0E9C00B301C7010D0A00796573000066
:107E0000112484B714BE81FFF0D085E080938100F7
:107E100082E08093C00088E18093C10086E0809377
:107E2000C20080E18093C4008EE0C9D0259A86E02C
:107E300020E33CEF91E0309385002093840096BBD3
:107E4000B09BFECF1D9AA8958150A9F7CC24DD24C4
:107E500088248394B5E0AB2EA1E19A2EF3E0BF2EE7
:107E6000A2D0813461F49FD0082FAFD0023811F036
:107E7000013811F484E001C083E08DD089C08234E0
:107E800011F484E103C0853419F485E0A6D080C0E4
:107E9000853579F488D0E82EFF2485D0082F10E0AE
:107EA000102F00270E291F29000F111F8ED06801E7
:107EB0006FC0863521F484E090D080E0DECF843638
:107EC00009F040C070D06FD0082F6DD080E0C81688
:107ED00080E7D80618F4F601B7BEE895C0E0D1E017
:107EE00062D089930C17E1F7F0E0CF16F0E7DF06D8
:107EF00018F0F601B7BEE89568D007B600FCFDCFD4
:107F0000A601A0E0B1E02C9130E011968C91119780
:107F100090E0982F8827822B932B1296FA010C0160
:107F200087BEE89511244E5F5F4FF1E0A038BF0790
:107F300051F7F601A7BEE89507B600FCFDCF97BE46
:107F4000E89526C08437B1F42ED02DD0F82E2BD052
:107F50003CD0F601EF2C8F010F5F1F4F84911BD097
:107F6000EA94F801C1F70894C11CD11CFA94CF0C13
:107F7000D11C0EC0853739F428D08EE10CD085E9AC
:107F80000AD08FE07ACF813511F488E018D01DD067
:107F900080E101D065CF982F8091C00085FFFCCF94
:107FA0009093C60008958091C00087FFFCCF809118
:107FB000C00084FD01C0A8958091C6000895E0E648
:107FC000F0E098E1908380830895EDDF803219F02E
:107FD00088E0F5DFFFCF84E1DECF1F93182FE3DFCA
:107FE0001150E9F7F2DF1F91089580E0E8DFEE27F6
:047FF000FF270994CA
:027FFE00040479
:0400000300007E007B
:00000001FF