:100000000C945D000C9485000C9485000C94850084
:100010000C9485000C9485000C9485000C9485004C
:100020000C9485000C9485000C9485000C94F702C8
:100030000C9485000C9485000C9485000C9485002C
:100040000C94AD020C9485000C947B020C94550228
:100050000C9485000C9485000C9485000C9485000C
:100060000C9485000C94850000000008000201003B
:100070000003040700000000000000000000000072
:10008000250028002B0000000000240027002A0083
:10009000040404040404040402020202020203032E
:1000A0000303030301020408102040800102040836
:1000B0001020010204081020B80311241FBECFEF46
:1000C000D8E0DEBFCDBF11E0A0E0B1E0EAE1FDE0A5
:1000D00002C005900D92AA31B107D9F721E0AAE13B
:1000E000B1E001C01D92AB3EB207E1F710E0CDE5F3
:1000F000D0E004C02197FE010E948006CC35D107D4
:10010000C9F70E9416040C948B060C940000CF9241
:10011000DF92EF92FF920F931F93CF93DF936C01C7
:100120007A018B01C0E0D0E0CE15DF0589F0D8015F
:100130006D918D01D601ED91FC910190F081E02D42
:10014000C6010995892B11F47E0102C02196ECCFDE
:10015000C701DF91CF911F910F91FF90EF90DF903A
:10016000CF900895089580E090E00895FC01538DAC
:10017000448D252F30E0842F90E0821B930B541781
:1001800010F0CF96089501970895FC01918D828D0E
:10019000981761F0828DDF01A80FB11D5D968C91DB
:1001A000928D9F5F9F73928F90E008958FEF9FEFE6
:1001B0000895FC01918D828D981731F0828DE80FA2
:1001C000F11D858D90E008958FEF9FEF0895FC015C
:1001D000918D228D892F90E0805C9F4F821B910929
:1001E0008F739927089586E291E00E94E70021E04D
:1001F000892B09F420E0822F0895FC01848DDF0112
:10020000A80FB11DA35ABF4F2C91848D90E0019689
:100210008F739927848FA689B7892C93A089B18978
:100220008C9180648C93938D848D981306C0028882
:10023000F389E02D80818F7D80830895EF92FF9276
:100240000F931F93CF93DF93EC0181E0888F9B8DF9
:100250008C8D981305C0E889F989808185FD24C0BB
:10026000F62E0B8D10E00F5F1F4F0F731127E02E3E
:100270008C8DE8120CC00FB607FCFACFE889F9891B
:10028000808185FFF5CFCE010E94FD00F1CF8B8DDF
:10029000FE01E80FF11DE35AFF4FF0820B8FEA8950
:1002A000FB898081806207C0EE89FF896083E889CD
:1002B000F98980818064808381E090E0DF91CF9133
:1002C0001F910F91FF90EF900895CF93DF93EC0172
:1002D000888D8823C9F0EA89FB89808185FD05C066
:1002E000A889B9898C9186FD0FC00FB607FCF5CFA0
:1002F000808185FFF2CFA889B9898C9185FFEDCFE8
:10030000CE010E94FD00E7CFDF91CF91089580E0FC
:1003100090E0892B29F00E94F30081110C940000D9
:10032000089590E0FC01E859FF4F3491FC01EC5531
:10033000FF4F2491FC01E057FF4FE491EE2309F4B5
:100340003BC0332339F1333091F038F43130A9F028
:10035000323001F584B58F7D12C0373091F03830DE
:10036000A1F03430B9F4809180008F7D03C080917A
:1003700080008F77809380000DC084B58F7784BD17
:1003800009C08091B0008F7703C08091B0008F7D4D
:100390008093B000F0E0EE0FFF1FE458FF4FA591EF
:1003A000B4918FB7F894EC91611103C020952E237E
:1003B00001C02E2B2C938FBF08953FB7F8948091E6
:1003C000200190912101A0912201B091230126B535
:1003D000A89B05C02F3F19F00196A11DB11D3FBF7D
:1003E000BA2FA92F982F8827820F911DA11DB11D0B
:1003F000BC01CD0142E0660F771F881F991F4A9507
:10040000D1F708958F929F92AF92BF920F931F934F
:10041000CF93DF93CDB7DEB7A1970FB6F894DEBFC9
:100420000FBECDBF19A2423008F44AE08E010F5D25
:100430001F4F842E912CA12CB12CA50194010E9458
:100440004306E62FB901CA0101501109EA3014F43C
:10045000E05D01C0E95CD801EC93232B242B252B14
:1004600061F70115110571F0F80101900020E9F71D
:100470003197AF01401B510BB80186E291E00E9419
:10048000870002C080E090E0A1960FB6F894DEBF2E
:100490000FBECDBFDF91CF911F910F91BF90AF9055
:1004A0009F908F9008950E9486061F920F920FB61C
:1004B0000F9211242F933F934F935F936F937F93EA
:1004C0008F939F93AF93BF93EF93FF9386E291E057
:1004D0000E94FD00FF91EF91BF91AF919F918F918D
:1004E0007F916F915F914F913F912F910F900FBE30
:1004F0000F901F9018951F920F920FB60F92112414
:100500002F938F939F93EF93FF93E0913601F09198
:1005100037018081E0913C01F0913D0182FD12C0E4
:10052000908180913F018F5F8F73209140018217EE
:1005300051F0E0913F01F0E0EA5DFE4F958F80932E
:100540003F0101C08081FF91EF919F918F912F9189
:100550000F900FBE0F901F9018951F920F920FB61D
:100560000F9211242F933F938F939F93AF93BF9339
:1005700080911C0190911D01A0911E01B0911F015D
:1005800030911B0123E0230F2D3720F40196A11D8C
:10059000B11D05C026E8230F0296A11DB11D2093B1
:1005A0001B0180931C0190931D01A0931E01B09329
:1005B0001F018091200190912101A0912201B09111
:1005C00023010196A11DB11D80932001909321016B
:1005D000A0932201B0932301BF91AF919F918F917E
:1005E0003F912F910F900FBE0F901F9018951F9263
:1005F0000F920FB60F9211242F933F934F935F9357
:100600006F937F938F939F93AF93BF93EF93FF93DA
:1006100080911A0187FF05C0109285001092840016
:100620001BC020911A01022E000C330B8091E701B0
:1006300090E02817390784F480911A01082E000CE5
:10064000990BFC01EE0FFF1F8E0F9F1FFC01ED5356
:10065000FE4F808186FD15C080911A018F5F8093C7
:100660001A0120911A01022E000C330B8091E70130
:1006700090E028173907C4F480911A018C3064F196
:1006800013C080911A01082E000C990BFC01EE0F8B
:10069000FF1F8E0F9F1FFC01ED53FE4F808160E016
:1006A0008F730E949101D8CF809184009091850032
:1006B000049680349C4918F480E49CE905C080913C
:1006C000840090918500049690938900809388001F
:1006D0008FEF80931A013BC02091840030918500F8
:1006E00080911A01082E000C990BFC01EE0FFF1FE0
:1006F0008E0F9F1FFC01ED53FE4F81819281820F6F
:10070000931F909389008093880080911A01082E8E
:10071000000C990BFC01EE0FFF1F8E0F9F1FFC01B9
:10072000ED53FE4F808186FF12C080911A01082E82
:10073000000C990BFC01EE0FFF1F8E0F9F1FFC0199
:10074000ED53FE4F808161E08F730E949101FF9114
:10075000EF91BF91AF919F918F917F916F915F9139
:100760004F913F912F910F900FBE0F901F901895B2
:10077000109229011092280188EE93E0A0E0B0E0E9
:1007800080932A0190932B01A0932C01B0932D010B
:1007900088E091E0909327018093260185EC90E01A
:1007A000909333018093320184EC90E09093350173
:1007B0008093340180EC90E0909337018093360170
:1007C00081EC90E0909339018093380182EC90E0C5
:1007D00090933B0180933A0186EC90E090933D0129
:1007E00080933C0110923F01109240011092410110
:1007F000109242018091E7018C30A0F491E0980FB3
:100800009093E7018093E80190E0FC01EE0FFF1F59
:100810008E0F9F1FFC01ED53FE4F88EB9BE09283F0
:10082000818308958FEF8093E8010895789484B5CB
:10083000826084BD84B5816084BD85B5826085BDDC
:1008400085B5816085BD80916E00816080936E006A
:10085000109281008091810082608093810080915C
:10086000810081608093810080918000816080930D
:1008700080008091B10084608093B1008091B000CD
:1008800081608093B00080917A00846080937A00C8
:1008900080917A00826080937A0080917A008160F2
:1008A00080937A0080917A00806880937A00109219
:1008B000C100E0913601F091370182E08083E09140
:1008C0003201F09133011082E0913401F091350151
:1008D0008FEC808310923E01E0913A01F0913B0150
:1008E00086E08083E0913801F09139018081806158
:1008F0008083E0913801F0913901808188608083A4
:10090000E0913801F0913901808180688083E09125
:100910003801F091390180818F7D80838091E801D9
:100920008C3008F068C0EFEAF0E02491EBE9F0E0E9
:100930008491882399F090E0880F991FFC01EA5771
:10094000FF4FA591B491FC01E458FF4F859194911C
:100950008FB7F894EC91E22BEC938FBF8091E80174
:10096000E82FF0E09F01220F331FE20FF31FED533A
:10097000FE4F9081907C9B6090831092E9011092D1
:10098000EA016CE00E9474062CE0829FB001112401
:1009900040E050E09A01260F371FF901EE0FFF1FCC
:1009A0002E0F3F1FF901ED53FE4F908196FD16C0AB
:1009B0004F5F5F4F4C30510569F781110FC01092A6
:1009C000800082E080938100109285001092840064
:1009D000B19A80916F00826080936F00E091E8018E
:1009E000F0E0CF01880F991FE80FF91FED53FE4F7C
:1009F00080818064808364EB862E912CA12CB12CA5
:100A00000E940306A50194010E941106709325011E
:100A1000609324013091EA012091E9013090E801CE
:100A20004BE0431508F44DC008E512E0031B110923
:100A300037FD1395000F111F000F111FC8E8D0E0FC
:100A4000C21BD10927FDD395CC0FDD1FCC0FDD1FB5
:100A50002E010D2E000C66087708DB0177FF02C01F
:100A6000A0E0B0E0A801012E000C660B770B9A0104
:100A7000AB0124193509460957090E943B06A50117
:100A800094010E941106420E531E641E751E4C16E0
:100A90005D062CF0E201041515050CF4E80122971F
:100AA000CC0FDD1F2FB7F894832D90E0FC01EE0FE3
:100AB000FF1F8E0F9F1FFC01ED53FE4FD283C1839A
:100AC0002FBF4090240150902501052C000C660892
:100AD000770877FE14C0E0912601F091270101907C
:100AE000F081E02D6DE286E291E009956627772797
:100AF000CB0164197509860997094AE003C04AE0E9
:100B0000C301B2010E94020242E050E066E171E0DE
:100B100086E291E00E9487000E94DD016B017C016A
:100B200084E6482E512C612C712C0E94DD01DC01E1
:100B3000CB018C199D09AE09BF09883E9340A105E0
:100B4000B10558F081E0481A51086108710898EE23
:100B5000C90E93E0D91EE11CF11C4114510461043B
:100B6000710419F70E9487014BCF8F929F92AF9229
:100B7000BF92CF92DF92EF92FF92CF93DF93EC017F
:100B8000688179818A819B81611571058105910553
:100B900021F464E279ED8BE597E02DE133EF41E05C
:100BA00050E00E94110649015A019B01AC01A7EADD
:100BB000B1E40E9430066B017C01ACEEB4EFA501FC
:100BC00094010E943E06DC01CB018C0D9D1DAE1DE3
:100BD000BF1DB7FF03C00197A109B048888399835F
:100BE000AA83BB83BC01CD019F77DF91CF91FF909A
:100BF000EF90DF90CF90BF90AF909F908F9008952F
:100C00000E94B505089580E091E00E94B505089521
:100C1000609300017093010180930201909303019E
:100C20000895052E97FB1EF400940E94280657FD98
:100C300007D00E94430607FC03D04EF40C9428060C
:100C400050954095309521953F4F4F4F5F4F0895F8
:100C500090958095709561957F4F8F4F9F4F089528
:100C60000E946506A59F900DB49F900DA49F800DD6
:100C7000911D11240895B7FF0C9430060E94300690
:100C8000821B930B0895A1E21A2EAA1BBB1BFD0128
:100C90000DC0AA1FBB1FEE1FFF1FA217B307E4075B
:100CA000F50720F0A21BB30BE40BF50B661F771FB3
:100CB000881F991F1A9469F7609570958095909593
:100CC0009B01AC01BD01CF010895A29FB001B39F6C
:100CD000C001A39F700D811D1124911DB29F700D45
:100CE000811D1124911D0895991B79E004C0991F5D
:100CF000961708F0961B881F7A95C9F78095089576
:100D0000EE0FFF1F0590F491E02D099481E090E033
:0A0D1000F8940C948B06F894FFCFC2
:100D1A0001000000000000001E018700B600650106
:0A0D2A00E700C500D9000D0A000023
:107E0000112484B714BE81FFF0D085E080938100F7
:107E100082E08093C00088E18093C10086E0809377
:107E2000C20080E18093C4008EE0C9D0259A86E02C
:107E300020E33CEF91E0309385002093840096BBD3
:107E4000B09BFECF1D9AA8958150A9F7CC24DD24C4
:107E500088248394B5E0AB2EA1E19A2EF3E0BF2EE7
:107E6000A2D0813461F49FD0082FAFD0023811F036
:107E7000013811F484E001C083E08DD089C08234E0
:107E800011F484E103C0853419F485E0A6D080C0E4
:107E9000853579F488D0E82EFF2485D0082F10E0AE
:107EA000102F00270E291F29000F111F8ED06801E7
:107EB0006FC0863521F484E090D080E0DECF843638
:107EC00009F040C070D06FD0082F6DD080E0C81688
:107ED00080E7D80618F4F601B7BEE895C0E0D1E017
:107EE00062D089930C17E1F7F0E0CF16F0E7DF06D8
:107EF00018F0F601B7BEE89568D007B600FCFDCFD4
:107F0000A601A0E0B1E02C9130E011968C91119780
:107F100090E0982F8827822B932B1296FA010C0160
:107F200087BEE89511244E5F5F4FF1E0A038BF0790
:107F300051F7F601A7BEE89507B600FCFDCF97BE46
:107F4000E89526C08437B1F42ED02DD0F82E2BD052
:107F50003CD0F601EF2C8F010F5F1F4F84911BD097
:107F6000EA94F801C1F70894C11CD11CFA94CF0C13
:107F7000D11C0EC0853739F428D08EE10CD085E9AC
:107F80000AD08FE07ACF813511F488E018D01DD067
:107F900080E101D065CF982F8091C00085FFFCCF94
:107FA0009093C60008958091C00087FFFCCF809118
:107FB000C00084FD01C0A8958091C6000895E0E648
:107FC000F0E098E1908380830895EDDF803219F02E
:107FD00088E0F5DFFFCF84E1DECF1F93182FE3DFCA
:107FE0001150E9F7F2DF1F91089580E0E8DFEE27F6
:047FF000FF270994CA
:027FFE00040479
:0400000300007E007B
:00000001FF