:100000000C945D000C9485000C9485000C94850084
:100010000C9485000C9485000C9485000C9485004C
:100020000C9485000C9485000C9485000C9485003C
:100030000C9485000C9485000C9485000C9485002C
:100040000C941D040C9485000C94EB030C94C503D4
:100050000C9485000C9485000C9485000C9485000C
:100060000C9485000C9485000000000024002700FB
:100070002A0000000000250028002B0004040404CE
:100080000404040402020202020203030303030342
:10009000010204081020408001020408102001021F
:1000A00004081020000000080002010000030407FB
:1000B0000000000000000000D70511241FBECFEF94
:1000C000D8E0DEBFCDBF11E0A0E0B1E0EEEDF0E1A1
:1000D00002C005900D92AC32B107D9F721E0ACE235
:1000E000B1E001C01D92AE3DB207E1F710E0CDE5F1
:1000F000D0E004C02197FE010E946208CC35D107F0
:10010000C9F70E9467040C946D080C940000CF920C
:10011000DF92EF92FF920F931F93CF93DF936C01C7
:100120007A018B01C0E0D0E0CE15DF0589F0D8015F
:100130006D918D01D601ED91FC910190F081E02D42
:10014000C6010995892B11F47E0102C02196ECCFDE
:10015000C701DF91CF911F910F91FF90EF90DF903A
:10016000CF900895089580E090E00895FC01538DAC
:10017000448D252F30E0842F90E0821B930B541781
:1001800010F0CF96089501970895FC01918D828D0E
:10019000981761F0828DDF01A80FB11D5D968C91DB
:1001A000928D9F5F9F73928F90E008958FEF9FEFE6
:1001B0000895FC01918D828D981731F0828DE80FA2
:1001C000F11D858D90E008958FEF9FEF0895FC015C
:1001D000918D228D892F90E0805C9F4F821B910929
:1001E0008F739927089581E491E00E94E70021E050
:1001F000892B09F420E0822F0895FC01848DDF0112
:10020000A80FB11DA35ABF4F2C91848D90E0019689
:100210008F739927848FA689B7892C93A089B18978
:100220008C9180648C93938D848D981306C0028882
:10023000F389E02D80818F7D80830895EF92FF9276
:100240000F931F93CF93DF93EC0181E0888F9B8DF9
:100250008C8D981305C0E889F989808185FD24C0BB
:10026000F62E0B8D10E00F5F1F4F0F731127E02E3E
:100270008C8DE8120CC00FB607FCFACFE889F9891B
:10028000808185FFF5CFCE010E94FD00F1CF8B8DDF
:10029000FE01E80FF11DE35AFF4FF0820B8FEA8950
:1002A000FB898081806207C0EE89FF896083E889CD
:1002B000F98980818064808381E090E0DF91CF9133
:1002C0001F910F91FF90EF900895CF93DF93EC0172
:1002D000888D8823C9F0EA89FB89808185FD05C066
:1002E000A889B9898C9186FD0FC00FB607FCF5CFA0
:1002F000808185FFF2CFA889B9898C9185FFEDCFE8
:10030000CE010E94FD00E7CFDF91CF91089580E0FC
:1003100090E0892B29F00E94F30081110C940000D9
:10032000089590E0FC01EC55FF4F3491FC01E0573B
:10033000FF4F2491FC01E458FF4FE491EE2309F4B0
:100340003BC0332339F1333091F038F43130A9F028
:10035000323001F584B58F7D12C0373091F03830DE
:10036000A1F03430B9F4809180008F7D03C080917A
:1003700080008F77809380000DC084B58F7784BD17
:1003800009C08091B0008F7703C08091B0008F7D4D
:100390008093B000F0E0EE0FFF1FEE58FF4FA591E5
:1003A000B4918FB7F894EC91611103C020952E237E
:1003B00001C02E2B2C938FBF0895CF93DF9390E035
:1003C000FC01E057FF4F2491FC01E458FF4F84915A
:1003D000882361F190E0880F991FFC01E859FF4FD5
:1003E000C591D491FC01EE58FF4FA591B4916111D4
:1003F00009C09FB7F8948881209582238883EC9167
:100400002E230BC0623061F49FB7F8943881822F9D
:10041000809583238883EC912E2B2C939FBF06C05D
:100420008FB7F894E8812E2B28838FBFDF91CF916F
:1004300008958E3008F08E508770806480937C0021
:1004400080917A00806480937A0080917A0086FDA2
:10045000FCCF809178002091790090E0922B089554
:100460003FB7F8948091310190913201A09133010E
:10047000B091340126B5A89B05C02F3F19F0019615
:10048000A11DB11D3FBFBA2FA92F982F8827820F1A
:10049000911DA11DB11DBC01CD0142E0660F771F6A
:1004A000881F991F4A95D1F708958F929F92AF9216
:1004B000BF92CF92DF92EF92FF920E9430024B01E7
:1004C0005C0185E0C82ED12CE12CF12C0E94300279
:1004D000DC01CB0188199909AA09BB09883E934020
:1004E000A105B10558F021E0C21AD108E108F108D0
:1004F00088EE880E83E0981EA11CB11CC114D104A3
:10050000E104F10419F7FF90EF90DF90CF90BF90D6
:10051000AF909F908F900895009769F0FC01019033
:100520000020E9F73197AF01481B590BBC0181E46A
:1005300091E00C94870080E090E008958F929F9264
:10054000AF92BF920F931F93CF93DF93CDB7DEB7D8
:10055000A1970FB6F894DEBF0FBECDBF19A24230EF
:1005600008F44AE08E010F5D1F4F842E912CA12CC0
:10057000B12CA50194010E944008E62FB901CA01DF
:1005800001501109EA3014F4E05D01C0E95CD801C2
:10059000EC93232B242B252B61F7C8010E948C029E
:1005A000A1960FB6F894DEBF0FBECDBFDF91CF91FD
:1005B0001F910F91BF90AF909F908F9008954F9291
:1005C0005F926F927F928F929F92AF92BF92CF92E3
:1005D000DF92EF92FF926B017C01B42E9B01AC0184
:1005E0000E943B08882319F082E191E027C0260190
:1005F0003701E89477F82FEF3FEF4FE75FE7C3014C
:10060000B2010E943B0881110DC02FEF3FEF4FE771
:100610005FE7C301B2010E94710618161CF486E15F
:1006200091E00CC02FEF3FEF4FE75FE4C701B60149
:100630000E94C907181684F48AE191E0FF90EF90B8
:10064000DF90CF90BF90AF909F908F907F906F90F2
:100650005F904F900C948C022FEF3FEF4FE75FECD1
:10066000C701B6010E94710687FDE6CF20E030E0A9
:10067000A901C701B6010E94710687FF11C0E09170
:100680004101F09142010190F081E02D6DE281E4A1
:1006900091E009954C01F7FAF094F7F8F09402C054
:1006A000812C912CA12C60E070E080E09FE3AB14E2
:1006B00041F020E030E040E251E40E947606A3944D
:1006C000F6CF9B01AC01C701B6010E9405062B01C4
:1006D0003C010E94E8066B017C010E9417079B0108
:1006E000AC01C301B2010E9404062B013C014AE0A7
:1006F000C701B6010E949E027C01E80CF91CBB20D8
:1007000069F0E0914101F09142010190F081E02D0A
:100710006EE281E491E00995E80EF91EDB2CDD2004
:1007200021F120E030E040E251E4C301B2010E9437
:10073000CE072B013C010E94E8064B01A12CB12CF5
:100740004AE0C501B4010E949E02E80EF91EC501EF
:10075000B4010E9417079B01AC01C301B2010E94C2
:1007600004062B013C01DA94DACFC701FF90EF9029
:10077000DF90CF90BF90AF909F908F907F906F90C1
:100780005F904F9008950E9468081F920F920FB6D5
:100790000F9211242F933F934F935F936F937F9307
:1007A0008F939F93AF93BF93EF93FF9381E491E077
:1007B0000E94FD00FF91EF91BF91AF919F918F91AA
:1007C0007F916F915F914F913F912F910F900FBE4D
:1007D0000F901F9018951F920F920FB60F92112431
:1007E0002F938F939F93EF93FF93E0915101F0919B
:1007F00052018081E0915701F091580182FD12C0B1
:10080000908180915A018F5F8F7320915B018217D5
:1008100051F0E0915A01F0E0EF5BFE4F958F80932D
:100820005A0101C08081FF91EF919F918F912F918B
:100830000F900FBE0F901F9018951F920F920FB63A
:100840000F9211242F933F938F939F93AF93BF9356
:1008500080912D0190912E01A0912F01B091300136
:1008600030912C0123E0230F2D3720F40196A11D98
:10087000B11D05C026E8230F0296A11DB11D2093CE
:100880002C0180932D0190932E01A0932F01B09302
:1008900030018091310190913201A0913301B091EA
:1008A00034010196A11DB11D809331019093320155
:1008B000A0933301B0933401BF91AF919F918F9179
:1008C0003F912F910F900FBE0F901F901895789425
:1008D00084B5826084BD84B5816084BD85B5826045
:1008E00085BD85B5816085BD80916E0081608093F6
:1008F0006E0010928100809181008260809381005F
:10090000809181008160809381008091800081606E
:10091000809380008091B10084608093B1008091C9
:10092000B00081608093B00080917A0084608093F1
:100930007A0080917A00826080937A0080917A00B8
:10094000816080937A0080917A00806880937A0039
:100950001092C10060E088E00E94DD0160E08BE061
:100960000E94DD0160E08AE00E94DD0160E089E034
:100970000E94DD01E0915101F091520182E08083FB
:10098000E0914D01F0914E011082E0914F01F09104
:1009900050018FEC808310925901E0915501F09144
:1009A000560186E08083E0915301F09154018081EB
:1009B00080618083E0915301F091540180818860CF
:1009C0008083E0915301F09154018081806880839D
:1009D000E0915301F091540180818F7D808361E02B
:1009E00088E00E94DD0161E08AE00E94DD0161E0B3
:1009F00088E00E94910160E08AE00E9491010E94DB
:100A0000550282E10E94190290933E0180933D01BC
:100A10000E94550260E088E00E94DD0160E08AE00B
:100A20000E94DD0161E08BE00E94DD0161E089E070
:100A30000E94DD0161E08BE00E94910160E089E0AD
:100A40000E9491010E94550283E10E941902909335
:100A5000400180933F010E94550260E08BE00E94BC
:100A6000DD0160E089E00E94DD0100913D0110910F
:100A70003E01C0913F01D0914001B8016954710914
:100A8000072E000C880B990B0E9419072CE03CE7FD
:100A900044EA5EE30E94CE0720E030E0A9010E9414
:100AA00005066B017C01C801855C9340BC01990F70
:100AB000880B990B0E94190725E932E54AE85FE3A4
:100AC0000E94CE0720E030EC48EA53E40E9405067D
:100AD0009B01AC01C701B6010E9405066093350178
:100AE000709336018093370190933801BE016256AE
:100AF0007109072E000C880B990B0E94190720E042
:100B000030E040E050E80E94CE0720E030E0A9014C
:100B10000E9405066B017C01CE018A559109BC013A
:100B2000990F880B990B0E94190720E030E040E0F4
:100B300050E80E94CE0720E030E0A9010E9405069F
:100B40009B01AC01C701B6010E9405066093390103
:100B500070933A0180933B0190933C018EE191E0C8
:100B60000E948C02609135017091360180913701AD
:100B70009091380142E00E94DF0281E291E00E9400
:100B80008C0285E291E00E948C02609139017091A3
:100B90003A0180913B0190913C0142E00E94DF02CA
:100BA00088E291E00E948C020E94870118CFE1E464
:100BB000F1E01382128288EE93E0A0E0B0E084833B
:100BC0009583A683B78384E091E09183808385EC4D
:100BD00090E09587848784EC90E09787868780EC07
:100BE00090E0918B808B81EC90E0938B828B82ECF8
:100BF00090E0958B848B86EC90E0978B868B118EA2
:100C0000128E138E148E08955058BB27AA270E9467
:100C10001C060C948F070E94810738F00E948807F9
:100C200020F039F49F3F19F426F40C947E070EF45B
:100C3000E095E7FB0C947807E92F0E94A00758F392
:100C4000BA17620773078407950720F079F4A6F5B1
:100C50000C94C2070EF4E0950B2EBA2FA02D0B01B9
:100C6000B90190010C01CA01A0011124FF27591BF1
:100C700099F0593F50F4503E68F11A16F040A22FF7
:100C8000232F342F4427585FF3CF46953795279568
:100C9000A795F0405395C9F77EF41F16BA0B620B67
:100CA000730B840BBAF09150A1F0FF0FBB1F661FAE
:100CB000771F881FC2F70EC0BA0F621F731F841FF1
:100CC00048F4879577956795B795F7959E3F08F017
:100CD000B0CF9395880F08F09927EE0F97958795D9
:100CE00008950E94540708F481E008950E948A063E
:100CF0000C948F070E94880758F00E94810740F0EB
:100D000029F45F3F29F00C94780751110C94C30724
:100D10000C947E070E94A00768F39923B1F3552332
:100D200091F3951B550BBB27AA27621773078407FE
:100D300038F09F5F5F4F220F331F441FAA1FA9F394
:100D400035D00E2E3AF0E0E832D091505040E69582
:100D5000001CCAF72BD0FE2F29D0660F771F881FE3
:100D6000BB1F261737074807AB07B0E809F0BB0BD6
:100D7000802DBF01FF2793585F4F3AF09E3F5105EA
:100D800078F00C9478070C94C3075F3FE4F3983E27
:100D9000D4F3869577956795B795F7959F5FC9F7D3
:100DA000880F911D9695879597F90895E1E0660F54
:100DB000771F881FBB1F621773078407BA0720F0CD
:100DC000621B730B840BBA0BEE1F88F7E095089536
:100DD0000E94A80788F09F5798F0B92F9927B7511C
:100DE000B0F0E1F0660F771F881F991F1AF0BA95CF
:100DF000C9F714C0B13091F00E94C207B1E0089564
:100E00000C94C207672F782F8827B85F39F0B93F55
:100E1000CCF3869577956795B395D9F73EF4909581
:100E20008095709561957F4F8F4F9F4F0895E894FF
:100E300009C097FB3EF490958095709561957F4F22
:100E40008F4F9F4F9923A9F0F92F96E9BB279395D0
:100E5000F695879577956795B795F111F8CFFAF4E0
:100E6000BB0F11F460FF1BC06F5F7F4F8F4F9F4F11
:100E700016C0882311F096E911C0772321F09EE86F
:100E8000872F762F05C0662371F096E8862F70E0D5
:100E900060E02AF09A95660F771F881FDAF7880FAF
:100EA0009695879597F90895990F0008550FAA0B05
:100EB000E0E8FEEF16161706E807F907C0F012166D
:100EC0001306E407F50798F0621B730B840B950B70
:100ED00039F40A2661F0232B242B252B21F40895C5
:100EE0000A2609F4A140A6958FEF811D811D089562
:100EF00097F99F6780E870E060E008959FEF80ECCD
:100F0000089500240A94161617061806090608956F
:100F100000240A9412161306140605060895092ED5
:100F20000394000C11F4882352F0BB0F40F4BF2B44
:100F300011F460FF04C06F5F7F4F8F4F9F4F089584
:100F400057FD9058440F551F59F05F3F71F047957A
:100F5000880F97FB991F61F09F3F79F0879508955F
:100F6000121613061406551FF2CF4695F1DF08C07E
:100F7000161617061806991FF1CF8695710561059B
:100F800008940895E894BB2766277727CB0197F943
:100F900008950E94540708F48FEF08950E94E10716
:100FA0000C948F070E94810738F00E94880720F078
:100FB000952311F00C9478070C947E0711240C945F
:100FC000C3070E94A00770F3959FC1F3950F50E0EF
:100FD000551F629FF001729FBB27F00DB11D639FEB
:100FE000AA27F00DB11DAA1F649F6627B00DA11D91
:100FF000661F829F2227B00DA11D621F739FB00D37
:10100000A11D621F839FA00D611D221F749F3327A6
:10101000A00D611D231F849F600D211D822F762F3F
:101020006A2F11249F5750409AF0F1F088234AF01C
:10103000EE0FFF1FBB1F661F771F881F9150504088
:10104000A9F79E3F510580F00C9478070C94C307D4
:101050005F3FE4F3983ED4F3869577956795B7950F
:10106000F795E7959F5FC1F7FE2B880F911D969529
:10107000879597F908950E945407880B990B089556
:10108000A1E21A2EAA1BBB1BFD010DC0AA1FBB1F8C
:10109000EE1FFF1FA217B307E407F50720F0A21BFE
:1010A000B30BE40BF50B661F771F881F991F1A946B
:1010B00069F760957095809590959B01AC01BD0195
:1010C000CF010895EE0FFF1F0590F491E02D0994D4
:0E10D00081E090E0F8940C946D08F894FFCF46
:1010DE00000000001E018700B6006501E700C50094
:1010EE00D9006E616E00696E66006F766600783AA2
:0C10FE000020202000793A000D0A0000BC
:00000001FF
