:100000000C945D000C9485000C9485000C94850084
:100010000C9485000C9485000C9485000C9485004C
:100020000C9485000C9485000C9485000C9485003C
:100030000C9485000C9485000C9485000C9485002C
:100040000C94A8050C9485000C9476050C9450052E
:100050000C9485000C9485000C9485000C9485000C
:100060000C9485000C9485000000000024002700FB
:100070002A0000000000250028002B0004040404CE
:100080000404040402020202020203030303030342
:10009000010204081020408001020408102001021F
:1000A00004081020000000080002010000030407FB
:1000B0000000000000000000F20511241FBECFEF79
:1000C000D8E0DEBFCDBF12E0A0E0B1E0ECE7FAE19E
:1000D00002C005900D92A838B107D9F723E0A8E82F
:1000E000B2E001C01D92A937B207E1F710E0CDE5FB
:1000F000D0E004C02197FE010E94040CCC35D1074A
:10010000C9F70E9453060C943C0D0C940000E0913A
:100110009102F09192020190F081E02D682F81E927
:1001200092E00994CF92DF92EF92FF920F931F9388
:10013000CF93DF936C017A018B01C0E0D0E0CE1544
:10014000DF0589F0D8016D918D01D601ED91FC910B
:100150000190F081E02DC6010995892B11F47E01F3
:1001600002C02196ECCFC701DF91CF911F910F9173
:10017000FF90EF90DF90CF900895089580E090E099
:100180000895FC01538D448D252F30E0842F90E09D
:10019000821B930B541710F0CF9608950197089582
:1001A000FC01918D828D981761F0828DDF01A80F7F
:1001B000B11D5D968C91928D9F5F9F73928F90E0A1
:1001C00008958FEF9FEF0895FC01918D828D981710
:1001D00031F0828DE80FF11D858D90E008958FEF4D
:1001E0009FEF0895FC01918D228D892F90E0805C16
:1001F0009F4F821B91098F739927089581E992E09F
:100200000E94F20021E0892B09F420E0822F08955A
:10021000FC01848DDF01A80FB11DA35ABF4F2C91A3
:10022000848D90E001968F739927848FA689B78972
:100230002C93A089B1898C9180648C93938D848D4B
:10024000981306C00288F389E02D80818F7D80831A
:100250000895EF92FF920F931F93CF93DF93EC01DA
:1002600081E0888F9B8D8C8D981305C0E889F98972
:10027000808185FD24C0F62E0B8D10E00F5F1F4F8F
:100280000F731127E02E8C8DE8120CC00FB607FCFF
:10029000FACFE889F989808185FFF5CFCE010E94E8
:1002A0000801F1CF8B8DFE01E80FF11DE35AFF4FDE
:1002B000F0820B8FEA89FB898081806207C0EE891A
:1002C000FF896083E889F98980818064808381E087
:1002D00090E0DF91CF911F910F91FF90EF900895E3
:1002E000CF93DF93EC01888D8823C9F0EA89FB89DD
:1002F000808185FD05C0A889B9898C9186FD0FC0D4
:100300000FB607FCF5CF808185FFF2CFA889B989A8
:100310008C9185FFEDCFCE010E940801E7CFDF91E0
:10032000CF91089580E090E0892B29F00E94FE0093
:1003300081110C940000089590E0FC01EC55FF4FF2
:100340003491FC01E057FF4F2491FC01E458FF4F2A
:10035000E491EE2309F43BC0332339F1333091F0BB
:1003600038F43130A9F0323001F584B58F7D12C0F8
:10037000373091F03830A1F03430B9F480918000FA
:100380008F7D03C0809180008F77809380000DC0A7
:1003900084B58F7784BD09C08091B0008F7703C08A
:1003A0008091B0008F7D8093B000F0E0EE0FFF1FD2
:1003B000EE58FF4FA591B4918FB7F894EC9161116D
:1003C00003C020952E2301C02E2B2C938FBF0895A0
:1003D000CF93DF9390E0FC01E057FF4F2491FC01A5
:1003E000E458FF4F8491882361F190E0880F991FB2
:1003F000FC01E859FF4FC591D491FC01EE58FF4F25
:10040000A591B491611109C09FB7F8948881209596
:1004100082238883EC912E230BC0623061F49FB756
:10042000F8943881822F809583238883EC912E2B3A
:100430002C939FBF06C08FB7F894E8812E2B28839A
:100440008FBFDF91CF9108958E3008F08E50877066
:10045000806480937C0080917A00806480937A002D
:1004600080917A0086FDFCCF809178002091790000
:1004700090E0922B08953FB7F89480918D0290916F
:100480008E02A0918F02B091900226B5A89B05C064
:100490002F3F19F00196A11DB11D3FBFBA2FA92F03
:1004A000982F8827820F911DA11DB11DBC01CD0180
:1004B00042E0660F771F881F991F4A95D1F708956C
:1004C0008F929F92AF92BF92CF92DF92EF92FF9264
:1004D0006B017C010E943B024B015C01C114D10401
:1004E000E104F104F1F00E943B02DC01CB01881928
:1004F0009909AA09BB09883E9340A105B10570F38B
:1005000021E0C21AD108E108F10888EE880E83E0E4
:10051000981EA11CB11CC114D104E104F10419F707
:10052000DDCFFF90EF90DF90CF90BF90AF909F9086
:100530008F900895CF93DF93CEE2D3E061E088817E
:100540000E94E80161E089810E94E80161E0888100
:100550000E949C0160E089810E949C0165E070E03E
:1005600080E090E00E9460028C810E9424029C8BBB
:100570008B8B65E070E080E090E00E94600260E0BC
:1005800088810E94E80160E089810E94E80161E0C1
:100590008A810E94E80161E08B810E94E80161E0AC
:1005A0008A810E949C0160E08B810E949C0165E031
:1005B00070E080E090E00E9460028D810E94240241
:1005C0009E8B8D8B65E070E080E090E00E94600281
:1005D00060E08A810E94E80160E08B81DF91CF9129
:1005E0000C94E801009769F0FC0101900020E9F704
:1005F0003197AF01481B590BBC0181E992E00C9483
:10060000920080E090E008958F929F92AF92BF9207
:100610000F931F93CF93DF93CDB7DEB7A1970FB69C
:10062000F894DEBF0FBECDBF19A2423008F44AE0F5
:100630008E010F5D1F4F842E912CA12CB12CA50192
:1006400094010E948009E62FB901CA0101501109E5
:10065000EA3014F4E05D01C0E95CD801EC93232B8F
:10066000242B252B61F7C8010E94F202A1960FB638
:10067000F894DEBF0FBECDBFDF91CF911F910F91D8
:10068000BF90AF909F908F9008950C94F202CF93FB
:10069000DF930E94F202EC0188E491E00E94F202F2
:1006A0008C0F9D1FDF91CF9108954F925F926F92B3
:1006B0007F928F929F92AF92BF92CF92DF92EF92F2
:1006C000FF926B017C01B42E9B01AC010E94EF0BE9
:1006D000882319F08BE491E027C026013701E894C4
:1006E00077F82FEF3FEF4FE75FE7C301B2010E94BA
:1006F000EF0B81110DC02FEF3FEF4FE75FE7C30115
:10070000B2010E941E0A18161CF48FE491E00CC07E
:100710002FEF3FEF4FE75FE4C701B6010E947D0B6B
:10072000181684F483E591E0FF90EF90DF90CF906E
:10073000BF90AF909F908F907F906F905F904F9001
:100740000C94F2022FEF3FEF4FE75FECC701B601C9
:100750000E941E0A87FDE6CF20E030E0A901C70114
:10076000B6010E941E0A87FF09C08DE20E94870021
:100770004C01F7FAF094F7F8F09402C0812C912C18
:10078000A12C60E070E080E09FE3AB1441F020E03A
:1007900030E040E251E40E94230AA394F6CF9B018B
:1007A000AC01C701B6010E94B2092B013C010E94B5
:1007B0009C0A6B017C010E94CB0A9B01AC01C30126
:1007C000B2010E94B1092B013C014AE0C701B60108
:1007D0000E9404037C01E80CF91CBB2029F08EE286
:1007E0000E948700E80EF91EDB2CDD2021F120E0BD
:1007F00030E040E251E4C301B2010E94820B2B01C0
:100800003C010E949C0A4B01A12CB12C4AE0C5017D
:10081000B4010E940403E80EF91EC501B4010E9450
:10082000CB0A9B01AC01C301B2010E94B1092B01AB
:100830003C01DA94DACFC701FF90EF90DF90CF90C0
:10084000BF90AF909F908F907F906F905F904F90F0
:100850000895CF92DF92EF92FF92CF93DF936C01D6
:10086000990FEE08FF08F7FE12C08DE20E94870084
:10087000EC0166277727CB016C197D098E099F094A
:100880004AE00E9404037C01EC0EFD1E06C04AE013
:10089000C701B6010E9404037C0188E491E00E9434
:1008A000F2028E0D9F1DDF91CF91FF90EF90DF90B0
:1008B000CF900895CF92DF92EF92FF92CF93DF9384
:1008C0006C01990FEE08FF08F7FE17C08DE20E9439
:1008D0008700EC0166277727CB016C197D098E090B
:1008E0009F094AE00E9404038C0F9D1FDF91CF9166
:1008F000FF90EF90DF90CF9008954AE0C701B601D6
:10090000DF91CF91FF90EF90DF90CF900C94040394
:100910004F925F926F927F928F929F92AF92BF920F
:10092000CF92DF92EF92FF920F931F93CF93DF93BB
:10093000EC01C1388FE3D80720F4CE01880F991F4E
:1009400002C08FEF9FEF0E940A0C7C01C138EFE3D9
:10095000DE0720F4CE01880F991F02C08FEF9FEFB2
:100960000E940A0C8C0157016C014C013701412C8B
:10097000512C4C165D06B4F40E949A0280914103FA
:1009800090914203F301819391933F01809143033E
:1009900090914403F401819391934F01FFEF4F1A1B
:1009A0005F0AE7CF20E030E060E070E0CB012C1779
:1009B0003D077CF4F501419051905F01052C000C3E
:1009C00066087708640D751D861D971D2F5F3F4FC4
:1009D000EECF4E010D2E000CAA08BB08A501940114
:1009E0000E945609CA01B9010E94CD0A0E94950AC7
:1009F000709342036093410340E050E060E070E098
:100A0000CB014C175D077CF4F601219131916F0108
:100A10002901330F66087708640D751D861D971D23
:100A20004F5F5F4FEECFA50194010E945609CA01A6
:100A3000B9010E94CD0A0E94950A70934403609305
:100A40004303E114F10419F0C7010E949F0C011542
:100A5000110599F0C801DF91CF911F910F91FF907F
:100A6000EF90DF90CF90BF90AF909F908F907F904E
:100A70006F905F904F900C949F0CDF91CF911F91DE
:100A80000F91FF90EF90DF90CF90BF90AF909F902D
:100A90008F907F906F905F904F9008950E94370DD8
:100AA0001F920F920FB60F9211242F933F934F93E3
:100AB0005F936F937F938F939F93AF93BF93EF93C6
:100AC000FF9381E992E00E940801FF91EF91BF91AD
:100AD000AF919F918F917F916F915F914F913F91D6
:100AE0002F910F900FBE0F901F9018951F920F928D
:100AF0000FB60F9211242F938F939F93EF93FF9331
:100B0000E091A102F091A2028081E091A702F09110
:100B1000A80282FD12C090818091AA028F5F8F731C
:100B20002091AB02821751F0E091AA02F0E0EF565B
:100B3000FD4F958F8093AA0201C08081FF91EF91B4
:100B40009F918F912F910F900FBE0F901F9018952E
:100B50001F920F920FB60F9211242F933F938F93F2
:100B60009F93AF93BF938091890290918A02A09145
:100B70008B02B0918C023091880223E0230F2D3735
:100B800020F40196A11DB11D05C026E8230F029691
:100B9000A11DB11D209388028093890290938A023F
:100BA000A0938B02B0938C0280918D0290918E0263
:100BB000A0918F02B09190020196A11DB11D80936A
:100BC0008D0290938E02A0938F02B0939002BF91FA
:100BD000AF919F918F913F912F910F900FBE0F90EA
:100BE0001F901895CF93DF93E1E9F2E01382128210
:100BF00088EE93E0A0E0B0E084839583A683B7837A
:100C00008AE391E09183808385EC90E095878487E7
:100C100084EC90E09787868780EC90E0918B808BC6
:100C200081EC90E0938B828B82EC90E0958B848BAF
:100C300086EC90E0978B868B118E128E138E148E1D
:100C4000CEE2D3E01E8680E1E6E0F1E0A5E4B3E089
:100C500001900D928A95E1F780E2E6E1F1E0A5E5E9
:100C6000B3E001900D928A95E1F78BE0888389E0EB
:100C700089838AE08A8388E08B8382E18C8383E1A5
:100C80008D8360E08BE00E94E80160E08AE00E94D2
:100C9000E80160E089E00E94E80160E088E0DF911F
:100CA000CF910C94E801CF93DF93CDB7DEB76C976B
:100CB0000FB6F894DEBF0FBECDBF789484B58260C6
:100CC00084BD84B5816084BD85B5826085BD85B5F0
:100CD000816085BD80916E00816080936E0010926E
:100CE00081008091810082608093810080918100E9
:100CF000816080938100809180008160809380007A
:100D00008091B10084608093B1008091B0008160D7
:100D10008093B00080917A00846080937A00809103
:100D20007A00826080937A0080917A00816080935B
:100D30007A0080917A00806880937A001092C100D6
:100D4000E091A102F091A20282E08083E0919D02F5
:100D5000F0919E021082E0919F02F091A0028FEC30
:100D600080831092A902E091A502F091A60286E08C
:100D70008083E091A302F091A4028081806180834E
:100D8000E091A302F091A402808188608083E091C9
:100D9000A302F091A402808180688083E091A30285
:100DA000F091A40280818F7D8083332433948091DD
:100DB0003C038111BEC087E591E00E94470388ECA7
:100DC00090E00E94880480914103909142039093A7
:100DD0003E0380933D03809143039091440390939D
:100DE000400380933F038BE791E00E9447038BE928
:100DF00091E00E94450380913D0390913E030E9443
:100E00005A0482EB91E00E94450380913D0390914A
:100E10003E030E9429048BEC91E00E9447030EE2FE
:100E200013E0E12CF12C81EE91E00E944503C70113
:100E30000E94290484E690E00E94880420914103E6
:100E40003091420380913D0390913E03281B390B62
:100E500037FF03C0319521953109293C3105ACF4A8
:100E6000209143033091440380913F0390914003CC
:100E7000281B390B37FF03C031952195310941E01B
:100E8000293C31051CF440E001C041E087EF91E0CE
:100E90004C8F0E94470368EE73E080E090E00E9470
:100EA00060024C8D442331F284E690E00E94880475
:100EB0008091410390914203D80158969C938E9360
:100EC000579780914303909144035A969C938E9335
:100ED00059978CE092E00E944503F8018789908D34
:100EE0000E945A0481E292E00E94450385E292E06A
:100EF0000E944503D80159968D919C915A970E9462
:100F00005A0488E491E00E94F2028AE392E00E948F
:100F10004703BFEFEB1AFB0A0C5F1F4FE4E0EE162E
:100F2000F10409F080CF84E692E00E9447033092FA
:100F30003C030E949A026091550370915603809180
:100F40005703909158030E94950A69837A838B8393
:100F50009C8380914503909146032C01990F66086C
:100F600077084D825E826F827886209141033091AE
:100F700042033901330F8808990869867A868B867F
:100F80009C866091590370915A0380915B03909104
:100F90005C030E94950A6B017C018090470390904E
:100FA0004803092C000CAA08BB0820914303309188
:100FB00044032901330F660877084D865E866F86E5
:100FC000788AA3019201281939094A095B096091BD
:100FD000690370916A0380916B0390916C03298F70
:100FE0003A8F4C8F5B8F0E94950A6C197D098E0990
:100FF0009F09298D3A8D4C8D5B8D0E94F40B2091B9
:101000004F03309150038901330F220B330BA90199
:101010009801281939094A095B090E945609CA0131
:10102000B9016C0D7D1D8E1D9F1D0E94CD0A6D8B1B
:101030007E8B8F8B988F60915D0370915E038091A2
:101040005F03909160030E94950A6B017C0180917F
:10105000490390914A033C01990F88089908698ACD
:101060007A8A8B8A9C8A6091610370916203809175
:101070006303909164030E94950A4B015C014090C8
:101080004B0350904C03052C000C660877082D8507
:101090003E854F85588924193509460957096091BD
:1010A0007103709172038091730390917403298F7F
:1010B0003A8F4C8F5B8F0E94950A681979098A09CB
:1010C0009B09298D3A8D4C8D5B8D0E94F40B2091EC
:1010D0005303309154038901330F220B330BA901C1
:1010E000980124193509460957090E945609CA0171
:1010F000B901680D791D8A1D9B1D0E94CD0A6D875F
:101100007E878F87988B29853A854B855C858D8076
:101110009E80AF80B884281939094A095B0960911B
:101120006503709166038091670390916803298F2E
:101130003A8F4C8F5B8F0E94950A49805A806B8052
:101140007C806419750986099709298D3A8D4C8D23
:101150005B8D0E94F40B20914D0330914E03890169
:10116000330F220B330BA9019801281939094A09B9
:101170005B090E945609C301B201620F731F841FED
:10118000951F0E94CD0A2B013C0129853A854B858C
:101190005C8589889A88AB88BC88281939094A09EE
:1011A0005B0960916D0370916E0380916F03909164
:1011B0007003298F3A8F4C8F5B8F0E94950A6C19B0
:1011C0007D098E099F09298D3A8D4C8D5B8D0E947A
:1011D000F40B20915103309152038901330F220BFC
:1011E000330BA9019801281939094A095B090E94A2
:1011F0005609CA01B9016C0D7D1D8E1D9F1D0E94EF
:10120000CD0A9B01AC01C301B2010E94B20920E0EA
:1012100030E040E05FE30E94820B60933403709300
:10122000350380933603909337032D853E854F8594
:1012300058896D897E898F89988D0E94B20920E036
:1012400030E040E05FE30E94820B609338037093CC
:10125000390380933A0390933B0381E892E00E9424
:10126000450360913403709135038091360390916A
:10127000370342E00E94550381E292E00E94450359
:1012800084E892E00E94450360913803709139032D
:1012900080913A0390913B0342E00E94550388E419
:1012A00091E00E94F2020E94920181CD052E97FBEF
:1012B0001EF400940E946D0957FD07D00E9480091A
:1012C00007FC03D04EF40C946D0950954095309571
:1012D00021953F4F4F4F5F4F0895909580957095A2
:1012E00061957F4F8F4F9F4F08950E94A209A59F40
:1012F000900DB49F900DA49F800D911D1124089511
:10130000A1E21A2EAA1BBB1BFD010DC0AA1FBB1F09
:10131000EE1FFF1FA217B307E407F50720F0A21B7B
:10132000B30BE40BF50B661F771F881F991F1A94E8
:1013300069F760957095809590959B01AC01BD0112
:10134000CF010895A29FB001B39FC001A39F700D6C
:10135000811D1124911DB29F700D811D1124911DBD
:1013600008955058BB27AA270E94C9090C94430B23
:101370000E94350B38F00E943C0B20F039F49F3F5F
:1013800019F426F40C94320B0EF4E095E7FB0C9460
:101390002C0BE92F0E94540B58F3BA1762077307FE
:1013A0008407950720F079F4A6F50C94760B0EF4DB
:1013B000E0950B2EBA2FA02D0B01B90190010C0165
:1013C000CA01A0011124FF27591B99F0593F50F47D
:1013D000503E68F11A16F040A22F232F342F4427D5
:1013E000585FF3CF469537952795A795F0405395CD
:1013F000C9F77EF41F16BA0B620B730B840BBAF09D
:101400009150A1F0FF0FBB1F661F771F881FC2F707
:101410000EC0BA0F621F731F841F48F4879577951B
:101420006795B795F7959E3F08F0B0CF9395880FD5
:1014300008F09927EE0F9795879508950E94080B5D
:1014400008F481E008950E94370A0C94430B0E942F
:101450003C0B58F00E94350B40F029F45F3F29F017
:101460000C942C0B51110C94770B0C94320B0E94A2
:10147000540B68F39923B1F3552391F3951B550B46
:10148000BB27AA2762177307840738F09F5F5F4F57
:10149000220F331F441FAA1FA9F335D00E2E3AF096
:1014A000E0E832D091505040E695001CCAF72BD0AE
:1014B000FE2F29D0660F771F881FBB1F26173707FF
:1014C0004807AB07B0E809F0BB0B802DBF01FF2731
:1014D00093585F4F3AF09E3F510578F00C942C0BD7
:1014E0000C94770B5F3FE4F3983ED4F386957795A1
:1014F0006795B795F7959F5FC9F7880F911D9695EA
:10150000879597F90895E1E0660F771F881FBB1F45
:10151000621773078407BA0720F0621B730B840BF2
:10152000BA0BEE1F88F7E09508950E949C0A689414
:10153000B1110C94770B08950E945C0B88F09F57B3
:1015400098F0B92F9927B751B0F0E1F0660F771FE7
:10155000881F991F1AF0BA95C9F714C0B13091F0DD
:101560000E94760BB1E008950C94760B672F782FCC
:101570008827B85F39F0B93FCCF3869577956795A2
:10158000B395D9F73EF490958095709561957F4F0E
:101590008F4F9F4F0895E89409C097FB3EF49095B4
:1015A0008095709561957F4F8F4F9F4F9923A9F03C
:1015B000F92F96E9BB279395F695879577956795CB
:1015C000B795F111F8CFFAF4BB0F11F460FF1BC00F
:1015D0006F5F7F4F8F4F9F4F16C0882311F096E9A2
:1015E00011C0772321F09EE8872F762F05C0662350
:1015F00071F096E8862F70E060E02AF09A95660F09
:10160000771F881FDAF7880F9695879597F90895C1
:10161000990F0008550FAA0BE0E8FEEF1616170603
:10162000E807F907C0F012161306E407F50798F06B
:10163000621B730B840B950B39F40A2661F0232B84
:10164000242B252B21F408950A2609F4A140A69500
:101650008FEF811D811D089597F99F6780E870E0E5
:1016600060E008959FEF80EC089500240A94161618
:10167000170618060906089500240A941216130680
:10168000140605060895092E0394000C11F488230E
:1016900052F0BB0F40F4BF2B11F460FF04C06F5F2A
:1016A0007F4F8F4F9F4F089557FD9058440F551F00
:1016B00059F05F3F71F04795880F97FB991F61F0D4
:1016C0009F3F79F087950895121613061406551F4B
:1016D000F2CF4695F1DF08C0161617061806991FB7
:1016E000F1CF86957105610508940895E894BB27AC
:1016F00066277727CB0197F908950E94080B08F415
:101700008FEF08950E94950B0C94430B0E94350BAC
:1017100038F00E943C0B20F0952311F00C942C0B18
:101720000C94320B11240C94770B0E94540B70F321
:10173000959FC1F3950F50E0551F629FF001729F76
:10174000BB27F00DB11D639FAA27F00DB11DAA1F85
:10175000649F6627B00DA11D661F829F2227B00DD2
:10176000A11D621F739FB00DA11D621F839FA00D5D
:10177000611D221F749F3327A00D611D231F849FAD
:10178000600D211D822F762F6A2F11249F57504004
:101790009AF0F1F088234AF0EE0FFF1FBB1F661F7F
:1017A000771F881F91505040A9F79E3F510580F048
:1017B0000C942C0B0C94770B5F3FE4F3983ED4F31E
:1017C000869577956795B795F795E7959F5FC1F7EC
:1017D000FE2B880F911D9695879597F908950E9485
:1017E000080B880B990B0895DB018F939F930E9440
:1017F0007509BF91AF91A29F800D911DA39F900D80
:10180000B29F900D11240895EE0FFF1F0590F491E3
:10181000E02D0994CF93DF938230910510F482E09C
:1018200090E0E0917703F091780320E030E0C0E0B1
:10183000D0E0309711F14081518148175907C0F02D
:101840004817590761F482819381209719F09B838F
:101850008A832BC0909378038093770326C0211549
:10186000310519F04217530718F49A01BE01DF0140
:10187000EF010280F381E02DDCCF2115310509F164
:10188000281B390B2430310590F412968D919C91D0
:1018900013976115710521F0FB019383828304C0C6
:1018A0009093780380937703FD01329644C0FD0145
:1018B000E20FF31F81939193225031092D933C93B2
:1018C0003AC02091750330917603232B41F4209187
:1018D0000201309103013093760320937503209128
:1018E0000001309101012115310541F42DB73EB7BA
:1018F0004091040150910501241B350BE0917503C3
:10190000F0917603E217F307A0F42E1B3F0B281784
:10191000390778F0AC014E5F5F4F2417350748F068
:101920004E0F5F1F509376034093750381939193FD
:1019300002C0E0E0F0E0CF01DF91CF9108950F9376
:101940001F93CF93DF93009709F48CC0FC0132976B
:10195000138212820091770310917803011511050B
:1019600081F420813181820F931F20917503309182
:1019700076032817390779F5F0937603E09375031A
:1019800071C0D80140E050E0AE17BF0750F4129686
:101990002D913C911397AD012115310509F1D90124
:1019A000F3CF9D01DA013383228360817181860F39
:1019B000971F8217930769F4EC0128813981260F5C
:1019C000371F2E5F3F4F318320838A819B81938312
:1019D0008283452B29F4F0937803E093770342C088
:1019E0001396FC93EE931297ED01499159919E0144
:1019F000240F351FE217F30771F480819181840F62
:101A0000951F029611969C938E93828193811396D3
:101A10009C938E931297E0E0F0E0D80112968D919E
:101A20009C911397009719F0F8018C01F6CF8D91D6
:101A30009C9198012E5F3F4F820F931F2091750359
:101A4000309176032817390769F4309729F41092FA
:101A500078031092770302C01382128210937603E8
:101A600000937503DF91CF911F910F91089581E04D
:0C1A700090E0F8940C943C0DF894FFCF2B
:101A7C0000007903800049006200C5035A00C503C9
:101A8C0093034B008703000000000000000000C01F
:101A9C00A8430000000000C0A8430040874300009A
:101AAC000000004087430000000029019200C100A3
:101ABC007001F200D000E4000D0A006E616E006946
:101ACC006E66006F7666004261636B67726F756E4F
:101ADC0064207265666572656E6365732063617000
:101AEC00747572696E672E2E2E2E004261636B67C1
:101AFC00726F756E64207265666572656E63657370
:101B0C0020636170747572656421004261636B6758
:101B1C00726F756E64207820566F6C746167653ACD
:101B2C00200020204261636B67726F756E642079B0
:101B3C0020566F6C746167653A200043616C696272
:101B4C00726174696F6E2041637469766174656447
:101B5C0000506C65617365207072657373206F6ED5
:101B6C0020706F696E740057616974696E672066C6
:101B7C006F7220746F7563682E2E2E00782072653C
:101B8C00666572656E636520566F6C746167653A45
:101B9C00002020200079207265666572656E636591
:101BAC0020566F6C746167653A00506F696E7420D3
:101BBC0041636365707465642C20506C656173655A
:101BCC002072656C656173652074686520706F693F
:101BDC006E742100546F75636873637265656E2053
:101BEC0061637469766174696F6E20646F6E6521D0
:081BFC0000783A00793A00007C
:00000001FF
