:100000000C945D000C9485000C9485000C94850084
:100010000C9485000C9485000C9485000C9485004C
:100020000C9485000C9485000C9485000C9485003C
:100030000C9485000C9485000C9485000C9485002C
:100040000C9429040C9485000C94F7030C94D103B0
:100050000C9485000C9485000C9485000C9485000C
:100060000C9485000C9485000000000024002700FB
:100070002A0000000000250028002B0004040404CE
:100080000404040402020202020203030303030342
:10009000010204081020408001020408102001021F
:1000A00004081020000000080002010000030407FB
:1000B0000000000000000000730411241FBECFEFF9
:1000C000D8E0DEBFCDBF11E0A0E0B1E0E6EAFFE09E
:1000D00002C005900D92AC3AB107D9F722E0ACEA24
:1000E000B1E001C01D92A439B207E1F710E0CDE5FF
:1000F000D0E004C02197FE010E94C607CC35D1078D
:10010000C9F70E94D3040C94D1070C940000E0912D
:10011000B501F091B6010190F081E02D682F85EBDB
:1001200091E00994CF92DF92EF92FF920F931F9389
:10013000CF93DF936C017A018B01C0E0D0E0CE1544
:10014000DF0589F0D8016D918D01D601ED91FC910B
:100150000190F081E02DC6010995892B11F47E01F3
:1001600002C02196ECCFC701DF91CF911F910F9173
:10017000FF90EF90DF90CF900895089580E090E099
:100180000895FC01538D448D252F30E0842F90E09D
:10019000821B930B541710F0CF9608950197089582
:1001A000FC01918D828D981761F0828DDF01A80F7F
:1001B000B11D5D968C91928D9F5F9F73928F90E0A1
:1001C00008958FEF9FEF0895FC01918D828D981710
:1001D00031F0828DE80FF11D858D90E008958FEF4D
:1001E0009FEF0895FC01918D228D892F90E0805C16
:1001F0009F4F821B91098F739927089585EB91E09A
:100200000E94F20021E0892B09F420E0822F08955A
:10021000FC01848DDF01A80FB11DA35ABF4F2C91A3
:10022000848D90E001968F739927848FA689B78972
:100230002C93A089B1898C9180648C93938D848D4B
:10024000981306C00288F389E02D80818F7D80831A
:100250000895EF92FF920F931F93CF93DF93EC01DA
:1002600081E0888F9B8D8C8D981305C0E889F98972
:10027000808185FD24C0F62E0B8D10E00F5F1F4F8F
:100280000F731127E02E8C8DE8120CC00FB607FCFF
:10029000FACFE889F989808185FFF5CFCE010E94E8
:1002A0000801F1CF8B8DFE01E80FF11DE35AFF4FDE
:1002B000F0820B8FEA89FB898081806207C0EE891A
:1002C000FF896083E889F98980818064808381E087
:1002D00090E0DF91CF911F910F91FF90EF900895E3
:1002E000CF93DF93EC01888D8823C9F0EA89FB89DD
:1002F000808185FD05C0A889B9898C9186FD0FC0D4
:100300000FB607FCF5CF808185FFF2CFA889B989A8
:100310008C9185FFEDCFCE010E940801E7CFDF91E0
:10032000CF91089580E090E0892B29F00E94FE0093
:1003300081110C940000089590E0FC01EC55FF4FF2
:100340003491FC01E057FF4F2491FC01E458FF4F2A
:10035000E491EE2309F43BC0332339F1333091F0BB
:1003600038F43130A9F0323001F584B58F7D12C0F8
:10037000373091F03830A1F03430B9F480918000FA
:100380008F7D03C0809180008F77809380000DC0A7
:1003900084B58F7784BD09C08091B0008F7703C08A
:1003A0008091B0008F7D8093B000F0E0EE0FFF1FD2
:1003B000EE58FF4FA591B4918FB7F894EC9161116D
:1003C00003C020952E2301C02E2B2C938FBF0895A0
:1003D000CF93DF9390E0FC01E057FF4F2491FC01A5
:1003E000E458FF4F8491882361F190E0880F991FB2
:1003F000FC01E859FF4FC591D491FC01EE58FF4F25
:10040000A591B491611109C09FB7F8948881209596
:1004100082238883EC912E230BC0623061F49FB756
:10042000F8943881822F809583238883EC912E2B3A
:100430002C939FBF06C08FB7F894E8812E2B28839A
:100440008FBFDF91CF9108958E3008F08E50877066
:10045000806480937C0080917A00806480937A002D
:1004600080917A0086FDFCCF809178002091790000
:1004700090E0922B08953FB7F8948091B10190914C
:10048000B201A091B301B091B40126B5A89B05C0FB
:100490002F3F19F00196A11DB11D3FBFBA2FA92F03
:1004A000982F8827820F911DA11DB11DBC01CD0180
:1004B00042E0660F771F881F991F4A95D1F708956C
:1004C0008F929F92AF92BF92CF92DF92EF92FF9264
:1004D0006B017C010E943B024B015C01C114D10401
:1004E000E104F104F1F00E943B02DC01CB01881928
:1004F0009909AA09BB09883E9340A105B10570F38B
:1005000021E0C21AD108E108F10888EE880E83E0E4
:10051000981EA11CB11CC114D104E104F10419F707
:10052000DDCFFF90EF90DF90CF90BF90AF909F9086
:100530008F900895009769F0FC0101900020E9F781
:100540003197AF01481B590BBC0185EB91E00C942E
:10055000920080E090E00895CF93DF930E949A028A
:10056000EC0182E491E00E949A028C0F9D1FDF91C2
:10057000CF9108958F929F92AF92BF920F931F9346
:10058000CF93DF93CDB7DEB7A1970FB6F894DEBF58
:100590000FBECDBF19A2423008F44AE08E010F5DB4
:1005A0001F4F842E912CA12CB12CA50194010E94E7
:1005B000A407E62FB901CA0101501109EA3014F469
:1005C000E05D01C0E95CD801EC93232B242B252BA3
:1005D00061F7C8010E949A02A1960FB6F894DEBF97
:1005E0000FBECDBFDF91CF911F910F91BF90AF9004
:1005F0009F908F9008954F925F926F927F928F920B
:100600009F92AF92BF92CF92DF92EF92FF926B01D7
:100610007C01B42E9B01AC010E949F07882319F036
:1006200085E491E027C026013701E89477F82FEFA1
:100630003FEF4FE75FE7C301B2010E949F078111BF
:100640000DC02FEF3FEF4FE75FE7C301B2010E94FC
:10065000D50518161CF489E491E00CC02FEF3FEF8C
:100660004FE75FE4C701B6010E942D07181684F416
:100670008DE491E0FF90EF90DF90CF90BF90AF902E
:100680009F908F907F906F905F904F900C949A0204
:100690002FEF3FEF4FE75FECC701B6010E94D50592
:1006A00087FDE6CF20E030E0A901C701B6010E9436
:1006B000D50587FF09C08DE20E9487004C01F7FA3B
:1006C000F094F7F8F09402C0812C912CA12C60E0FA
:1006D00070E080E09FE3AB1441F020E030E040E2C6
:1006E00051E40E94DA05A394F6CF9B01AC01C70147
:1006F000B6010E9469052B013C010E944C066B016A
:100700007C010E947B069B01AC01C301B2010E94E7
:1007100068052B013C014AE0C701B6010E94BA02FC
:100720007C01E80CF91CBB2029F08EE20E948700B6
:10073000E80EF91EDB2CDD2021F120E030E040E264
:1007400051E4C301B2010E9432072B013C010E9417
:100750004C064B01A12CB12C4AE0C501B4010E940A
:10076000BA02E80EF91EC501B4010E947B069B0186
:10077000AC01C301B2010E9468052B013C01DA946F
:10078000DACFC701FF90EF90DF90CF90BF90AF908E
:100790009F908F907F906F905F904F9008950E94F0
:1007A000CC071F920F920FB60F9211242F933F93F5
:1007B0004F935F936F937F938F939F93AF93BF9369
:1007C000EF93FF9385EB91E00E940801FF91EF9179
:1007D000BF91AF919F918F917F916F915F914F9159
:1007E0003F912F910F900FBE0F901F9018951F9261
:1007F0000F920FB60F9211242F938F939F93EF9325
:10080000FF93E091C501F091C6018081E091CB0199
:10081000F091CC0182FD12C090818091CE018F5F5A
:100820008F732091CF01821751F0E091CE01F0E05B
:10083000EB54FE4F958F8093CE0101C08081FF91D4
:10084000EF919F918F912F910F900FBE0F901F905E
:1008500018951F920F920FB60F9211242F933F936A
:100860008F939F93AF93BF938091AD019091AE0111
:10087000A091AF01B091B0013091AC0123E0230F02
:100880002D3720F40196A11DB11D05C026E8230FC8
:100890000296A11DB11D2093AC018093AD019093F0
:1008A000AE01A093AF01B093B0018091B1019091DE
:1008B000B201A091B301B091B4010196A11DB11D87
:1008C0008093B1019093B201A093B301B093B401AE
:1008D000BF91AF919F918F913F912F910F900FBE3C
:1008E0000F901F901895E5EBF1E01382128288EECD
:1008F00093E0A0E0B0E084839583A683B78384E38C
:1009000091E09183808385EC90E09587848784ECE7
:1009100090E09787868780EC90E0918B808B81ECCC
:1009200090E0938B828B82EC90E0958B848B86ECAD
:1009300090E0978B868B118E128E138E148E80E131
:10094000E0E0F1E0A4E6B2E001900D928A95E1F7D3
:1009500080E2E0E1F1E0A4E7B2E001900D928A9537
:10096000E1F7E2E5F2E088E080838BE081838AE0D2
:10097000828389E0838382E1848383E1858360E0ED
:1009800088E00E94E80160E08AE00E94E80160E0FF
:100990008BE00E94E80160E089E00E94E80181E5C7
:1009A00091E00C94AC02789484B5826084BD84B5E7
:1009B000816084BD85B5826085BD85B5816085BD5A
:1009C00080916E00816080936E0010928100809112
:1009D000810082608093810080918100816080939A
:1009E0008100809180008160809380008091B100BF
:1009F00084608093B1008091B00081608093B000EA
:100A000080917A00846080937A0080917A0082607D
:100A100080937A0080917A00816080937A0080913F
:100A20007A00806880937A001092C100E091C5013D
:100A3000F091C60182E08083E091C101F091C20192
:100A40001082E091C301F091C4018FEC8083109279
:100A5000CD01E091C901F091CA0186E08083E09167
:100A6000C701F091C801808180618083E091C70156
:100A7000F091C801808188608083E091C701F09186
:100A8000C801808180688083E091C701F091C8012E
:100A900080818F7D80838BE691E00E94AC0281E8AB
:100AA00091E00E949A024AE060E070E0CB010E946F
:100AB000BA0282E491E00E949A0287E991E00E94E2
:100AC000AC0268EE73E080E090E00E946002F5CF37
:100AD0005058BB27AA270E9480050C94F3060E9459
:100AE000E50638F00E94EC0620F039F49F3F19F437
:100AF00026F40C94E2060EF4E095E7FB0C94DC0679
:100B0000E92F0E94040758F3BA1762077307840796
:100B1000950720F079F4A6F50C9426070EF4E095DD
:100B20000B2EBA2FA02D0B01B90190010C01CA01A7
:100B3000A0011124FF27591B99F0593F50F4503E52
:100B400068F11A16F040A22F232F342F4427585F44
:100B5000F3CF469537952795A795F0405395C9F75C
:100B60007EF41F16BA0B620B730B840BBAF0915014
:100B7000A1F0FF0FBB1F661F771F881FC2F70EC0B3
:100B8000BA0F621F731F841F48F487957795679586
:100B9000B795F7959E3F08F0B0CF9395880F08F072
:100BA0009927EE0F9795879508950E94B80608F447
:100BB00081E008950E94EE050C94F3060E94EC0675
:100BC00058F00E94E50640F029F45F3F29F00C94AC
:100BD000DC0651110C9427070C94E2060E940407CE
:100BE00068F39923B1F3552391F3951B550BBB275C
:100BF000AA2762177307840738F09F5F5F4F220FA1
:100C0000331F441FAA1FA9F335D00E2E3AF0E0E897
:100C100032D091505040E695001CCAF72BD0FE2FE1
:100C200029D0660F771F881FBB1F26173707480775
:100C3000AB07B0E809F0BB0B802DBF01FF2793582D
:100C40005F4F3AF09E3F510578F00C94DC060C940F
:100C500027075F3FE4F3983ED4F386957795679531
:100C6000B795F7959F5FC9F7880F911D9695879562
:100C700097F90895E1E0660F771F881FBB1F621781
:100C800073078407BA0720F0621B730B840BBA0B3F
:100C9000EE1F88F7E09508950E940C0788F09F5793
:100CA00098F0B92F9927B751B0F0E1F0660F771F90
:100CB000881F991F1AF0BA95C9F714C0B13091F086
:100CC0000E942607B1E008950C942607672F782F1D
:100CD0008827B85F39F0B93FCCF38695779567954B
:100CE000B395D9F73EF490958095709561957F4FB7
:100CF0008F4F9F4F0895E89409C097FB3EF490955D
:100D00008095709561957F4F8F4F9F4F9923A9F0E4
:100D1000F92F96E9BB279395F69587957795679573
:100D2000B795F111F8CFFAF4BB0F11F460FF1BC0B7
:100D30006F5F7F4F8F4F9F4F16C0882311F096E94A
:100D400011C0772321F09EE8872F762F05C06623F8
:100D500071F096E8862F70E060E02AF09A95660FB1
:100D6000771F881FDAF7880F9695879597F908956A
:100D7000990F0008550FAA0BE0E8FEEF16161706AC
:100D8000E807F907C0F012161306E407F50798F014
:100D9000621B730B840B950B39F40A2661F0232B2D
:100DA000242B252B21F408950A2609F4A140A695A9
:100DB0008FEF811D811D089597F99F6780E870E08E
:100DC00060E008959FEF80EC089500240A941616C1
:100DD000170618060906089500240A941216130629
:100DE000140605060895092E0394000C11F48823B7
:100DF00052F0BB0F40F4BF2B11F460FF04C06F5FD3
:100E00007F4F8F4F9F4F089557FD9058440F551FA8
:100E100059F05F3F71F04795880F97FB991F61F07C
:100E20009F3F79F087950895121613061406551FF3
:100E3000F2CF4695F1DF08C0161617061806991F5F
:100E4000F1CF86957105610508940895E894BB2754
:100E500066277727CB0197F908950E94B80608F412
:100E60008FEF08950E9445070C94F3060E94E50653
:100E700038F00E94EC0620F0952311F00C94DC066B
:100E80000C94E20611240C9427070E94040770F3C7
:100E9000959FC1F3950F50E0551F629FF001729F1F
:100EA000BB27F00DB11D639FAA27F00DB11DAA1F2E
:100EB000649F6627B00DA11D661F829F2227B00D7B
:100EC000A11D621F739FB00DA11D621F839FA00D06
:100ED000611D221F749F3327A00D611D231F849F56
:100EE000600D211D822F762F6A2F11249F575040AD
:100EF0009AF0F1F088234AF0EE0FFF1FBB1F661F28
:100F0000771F881F91505040A9F79E3F510580F0F0
:100F10000C94DC060C9427075F3FE4F3983ED4F36F
:100F2000869577956795B795F795E7959F5FC1F794
:100F3000FE2B880F911D9695879597F908950E942D
:100F4000B806880B990B0895A1E21A2EAA1BBB1BA9
:100F5000FD010DC0AA1FBB1FEE1FFF1FA217B30785
:100F6000E407F50720F0A21BB30BE40BF50B661F9B
:100F7000771F881F991F1A9469F76095709580955F
:100F800090959B01AC01BD01CF010895EE0FFF1FAD
:100F90000590F491E02D099481E090E0F8940C9490
:060FA000D107F894FFCF19
:100FA60049006200C5035A00C50393034B0087033B
:100FB600000000000000000000C0A8430000000080
:100FC60000C0A8430040874300000000004087435C
:100FD6000000000029019200C1007001F200D0005B
:100FE600E4000D0A006E616E00696E66006F76663B
:100FF60000546F75636873637265656E20496E6928
:101006007469616C697A6564A3A10043616C696265
:10101600726174696F6E2041637469766174656488
:1010260000506C65617365207072657373206F6E16
:1010360020706F696E740057616974696E67206607
:0C1046006F7220746F7563682E2E2E00F0
:00000001FF
